:020000040800F2
:1000000048050020C101000843190008CF17000867
:10001000411900087B070008891D00080000000046
:100020000000000000000000000000004719000868
:100030007D07000800000000451900084919000864
:10004000DB010008DB010008DB010008DB01000820
:10005000DB010008DB010008DB010008DB01000810
:10006000DB010008DB010008DB010008DB01000800
:10007000DB010008DB010008DB010008DB010008F0
:10008000DB010008DB010008DB010008DB010008E0
:10009000DB010008DB010008DB010008DB010008D0
:1000A000DB010008DB010008DB010008DB010008C0
:1000B000DB010008ED190008DB010008DB01000886
:1000C000DB010008DB010008DB010008DB010008A0
:1000D000DB010008DB010008DB010008DB01000890
:1000E000DB010008DB010008DB010008DB01000880
:1000F000DB010008DB010008DB010008DB01000870
:10010000DB010008DB010008DB010008DB0100085F
:10011000DB010008DB010008DB010008DB0100084F
:10012000DB010008DB010008DB010008DB0100083F
:10013000DB010008DB010008DB010008DB0100082F
:10014000DB010008DB010008DB010008DB0100081F
:10015000DB010008DB010008DB010008DB0100080F
:10016000DB010008DB010008DB010008DB010008FF
:10017000DB010008DB010008DB01000800000000D3
:10018000DB010008DB010008DB010008DB010008DF
:10019000DB010008DB010008DB010008DB010008CF
:1001A000DB010008DB010008DB010008DFF80CD0F0
:1001B00000F062FA00480047B12600084805002018
:1001C0000648804706480047FEE7FEE7FEE7FEE7F1
:1001D000FEE7FEE7FEE7FEE7FEE7FEE7D1190008CF
:1001E000AD0100082DE9F05F0546002092469B46D0
:1001F00088460646814640241BE02846414647463D
:10020000224600F071F853465A46C01A914110D365
:1002100011461846224600F058F82D1A67EB0108DF
:100220004F4622460120002100F04FF817EB00094D
:100230004E41201EA4F10104DFDC484631462A4627
:100240004346BDE8F09FD2B201E000F8012B491E01
:10025000FBD270470022F6E710B513460A46044663
:100260001946FFF7F0FF204610BD421C10F8011B95
:100270000029FBD1801A704700F0004230F00040A6
:100280000AD0C10D01F56071C0F3160042EA0151B8
:10029000C20840071143704700200146704730B53F
:1002A0000B46014600202022012409E021FA02F534
:1002B0009D4205D303FA02F5491B04FA02F52844CE
:1002C000151EA2F10102F1DC30BD202A04DB203A28
:1002D00000FA02F1002070479140C2F1200320FA99
:1002E00003F3194390407047202A04DB203A21FA97
:1002F00002F00021704721FA02F3D040C2F120023F
:1003000091400843194670472DE9FE4F804681EA27
:100310000300C00F0C46009021F0004123F000457F
:10032000B8EB0200A94105D24046214690461C4642
:100330000B46024623F00040104347D0270DC7F379
:100340000A00C3F30A510290401A019040286BDA68
:10035000C3F3130040F4801B0098924620B10023A1
:10036000D2EB030A63EB0B0B01985946C0F1400234
:100370005046FFF7AAFF06460D4650465946019AD9
:1003800000F08CF910EB08006141002487EA11525B
:1003900084EAE7731A4340D0009A62B3019A012AB3
:1003A0004FEA075215DC001B61EB02014FF00042DF
:1003B00002EA0752CDE90042001C41F580113246A5
:1003C0002B4600F08CF903B0BDE8F08F4046214683
:1003D000F9E7001B61EB0201001C41F580130018D6
:1003E0005B412018A2F5001747EB030140EAD570E6
:1003F000B6196D4111E06D084FEA360645EAC07541
:100400004FEA0752001B61EB0201001C41F580110D
:1004100049084FEA30000019514132462B4603B0DB
:10042000BDE8F04F00F04CB90098012240000023D5
:10043000D0EB020263EBE073009821464FEAE074D0
:10044000B8EB000061EB0401E9E783F000435BE7F0
:1004500081F0004158E72DE9FE4F81EA030404F0E2
:10046000004421F0004100944FF0000B23F00043C2
:1004700050EA01045ED052EA03045BD0C3F30A548D
:10048000C1F30A552C44A4F2F3340194A0FB0254A6
:10049000C1F3130141F48011C3F3130343F4801338
:1004A00001FB024400FB034E840A970A44EA81548C
:1004B00047EA8357A4FB076802958D0A05FB078569
:1004C0004FEA932C04FB0C542705029D4FEA065873
:1004D00047EA1637B5EB08056EEB070C870E920E50
:1004E00047EA811742EA8312A7FB0201B6EB0B0130
:1004F00064EB00042B0D43EA0C335E1844EB1C50F4
:10050000DA465146E7FB0201C5F313044FEA0B3309
:1005100043EA14534FEA0432019C43EA0603A4F170
:100520000C040294009CCDE900B400F0D8F803B0AC
:10053000BDE8F08F00200146F9E72DE9F04D81EA92
:10054000030404F0004B21F0004514464FF0000A6C
:1005500023F0004150EA050220D054EA01021DD0E8
:10056000C5F30A570246C5F31303C1F31300C1F3E1
:100570000A5640F4801543F48013A7EB0608101BBD
:10058000D64608F2FD3873EB050002D308F10108E6
:1005900001E092185B41B8F1000F03DA0020014638
:1005A000BDE8F08D00204FF48011064684460EE031
:1005B000171B73EB050705D3121B63EB05030643FB
:1005C0004CEA010C49084FEA300092185B4150EAAE
:1005D0000107EDD152EA030012D082EA040083EA57
:1005E0000501084305D0101BAB4106D201220023B0
:1005F00006E000224FF0004302E06FF001025310CA
:100600001AEB06004CEB085110EB0A0041EB0B0112
:10061000BDE8F04D00F054B8C1F30A52C1F3130124
:1006200040F2FF3341F480119A4202DA0020014681
:10063000704740F233439A42A2F2334202DC524204
:10064000FFF752BEFFF741BE30B5041E71F1000442
:1006500004DB4FF00044404264EB0101141E73F1CF
:10066000000405DB1C464FF00043524263EB0403D9
:10067000994208BF904230BD064C074D06E0E06845
:1006800040F0010394E8070098471034AC42F6D3D9
:10069000FFF790FD2C2800084C280008202A06DBD4
:1006A000CB17203A41FA02F043EAE07306E041FA40
:1006B00002F3D040C2F1200291400843194670472E
:1006C00010B5141E73F1000408DA401C41F100015A
:1006D00092185B411A4301D120F0010010BD2DE9B1
:1006E000F04D92469B4611B1B1FA81F202E0B0FAA8
:1006F00080F220329046FFF7E8FD04460F4640EABC
:100700000A0041EA0B0153465A46084313D01146EA
:1007100053EA010019D0C8F140025046FFF7E4FD4A
:1007200005460E46504659464246FFF7CEFD084361
:1007300005D0012004E020463946BDE8F08D0020B8
:10074000054346EAE0762C4337430A986305E40AFA
:10075000A0EB08000022FD0A44EA47540A3002D503
:1007600000200146E9E7010510196941DDE9084566
:1007700000196941BDE8F04DA2E7FEE770470000AF
:1007800070B5044600F004F90546601C02D0044828
:100790000078044400F0FCF8401BA042FAD370BD7E
:1007A000100000202DE9F84F00224FF0010803252A
:1007B0004FF00F0E0B6808FA02F42340A3426ED1EB
:1007C0004E68012E05D0022E03D0112E01D0122E1C
:1007D00012D186684FEA420C05FA0CF7BE43CF6887
:1007E00007FA0CF7374387604668A6430C79C4F3D1
:1007F0000014944034434460C668570005FA07FC6F
:100800008C6826EA0C06BC403443C4604C68022C59
:1008100001D0122C13D1D40800EB8404A346D4F8E1
:10082000209054074FEAD46A0EFA0AF629EA06091C
:100830000E6906FA0AF646EA0906CBF82060046853
:100840000E7924EA0C0406F00306BE402643066037
:100850004C68E4006FD53B4C266846F48046266021
:10086000246822F0030604F480440094364C344497
:10087000A446D4F808489607360F0EFA06F7BC438C
:10088000324FB84201D100272EE0314FB84201D19A
:10089000012729E02F4FB84202D1022724E04AE085
:1008A0002D4FB84201D103271EE02C4FB84201D191
:1008B000042719E02A4FB84201D1052714E0294F37
:1008C000B84201D106270FE0274FB84201D10727D0
:1008D0000AE0264FB84201D1082705E0244FB8426C
:1008E00001D1092700E00A27B7402743CCF8087850
:1008F000204E34684F689C43FF0300D51C4334608E
:100900001C4E361D34684F689C43BF0300D51C4302
:100910003460184E083634684F689C43FF0200D597
:100920001C433460134E0C3634684F689C43BF023E
:1009300000D51C433460521C102AFFF43BAFBDE8C5
:10094000F88F0000443802400030014000000240AF
:100950000004024000080240000C02400010024067
:100960000014024000180240001C02400020024017
:1009700000240240003C0140426931EA020200D1F9
:100980000904816170470AB1816170470904FBE77E
:10099000014880687047000010000020024881680C
:1009A0000278114481607047100000200B4810B598
:1009B000016841F400710160016841F480610160E7
:1009C000016841F480710160032000F06FF800209D
:1009D00000F006F800F024F8002010BD003C0240B2
:1009E00070B50D4D04464FF47A712878B1FBF0F0E4
:1009F0000A490968B1FBF0F000F004FB48B9102C7B
:100A000007D200222146501E00F030F800206C6012
:100A100070BD012070BD0000100000201C000020EF
:100A20000A4808B5016841F480410160006800F49B
:100A3000804000900548001F016841F0805101602E
:100A4000006800F08050009008BD0000443802406B
:100A5000002809DB00F01F020121914040098000BD
:100A600000F1E020C0F8001170470000F0B40E4B18
:100A70001B680C46C3F30223C3F10705042D00D9FC
:100A80000425191D072901D2002300E0DB1E0126E1
:100A900006FA05F1491E214099409E40761E1640F7
:100AA0003143F0BC01F086B90CED00E0064900F0DE
:100AB000070208684FF6FF03184040EA0220034A85
:100AC00010430860704700000CED00E00000FA05DC
:100AD0002DE9F0470E46050065D0DFF81481D8F8FF
:100AE0000000F7B200F00F00B04207D288F80070A3
:100AF000D8F8000000F00F00B04254D128683D4CF7
:100B0000810712D5400703D5206840F4E0502060EB
:100B10002878000703D5206840F4604020602068F2
:100B2000A96820F0F000084320602878C0072DD085
:100B3000304968680839012812D0022813D00328E8
:100B400011D00968890700292DDA216821F00301F5
:100B500001432160FFF71CFF814641F2883A0EE015
:100B600009688903EFE709688901ECE7FFF710FFDF
:100B7000A0EB0901514502D90320BDE8F0872068A8
:100B8000696800F00C00B0EB810FEFD1D8F80010CD
:100B9000404601F00F01B14207D90770006800F02C
:100BA0000F00B04201D00120E7E72878400705D5C3
:100BB0002068E96820F4E0500843206028780007A6
:100BC00006D52068296920F4604040EAC100206011
:100BD00000F038F82168084AC1F30311515CC8409D
:100BE0000649086006480068FFF7FAFE0020C4E7DF
:100BF000003C024008380240142800081C00002075
:100C0000140000200448054900680968044AC1F33B
:100C10008221515CC84070471C0000200838024007
:100C2000242800080448054900680968044AC1F3FB
:100C30004231515CC84070471C0000200838024017
:100C400024280008154810B5006810F00C0214485C
:100C500013D01449042A0FD0082A0ED10F4C241F98
:100C60002268236802F03F025B0207D52068C0F3C8
:100C70008810A0FB010106E0084610BD2168C1F301
:100C80008811A1FB00010023FFF7ACFA2168C1F332
:100C90000141491C4900B0FBF1F010BD0838024089
:100CA0000024F40040787D012DE9F84F040076D04F
:100CB0002078DFF838A3CE4DC00749D0DAF800100D
:100CC0005046C1F38101012908D00068C0F38100BA
:100CD00002280AD1281D0068400206D52868800332
:100CE00036D560680028E2D032E06068B0F5803F19
:100CF00010D0B0F5A02F286810D020F480302860E4
:100D0000286820F4802028606068A0B1FFF740FECA
:100D100006460CE0286840F48030F4E740F4802078
:100D20002860F7E7FFF734FE801B642873D8286833
:100D30008003F7D50CE0FFF72BFE064605E000BF69
:100D4000FFF726FE801B6428F0D828688003F7D4BC
:100D50002078DFF8A08280074FF000093ED5DAF84E
:100D60000010504611F00C0F09D00068C0F381004C
:100D700002280BD19D48001F0068400206D4286855
:100D8000800715D5E068012809D111E0E068B8B105
:100D90000120C8F80000FFF7FBFD064605E020E152
:100DA000FFF7F6FD801B0228C0D828688007F7D51A
:100DB0002868216920F0F80040EAC10028600DE0B1
:100DC000C8F80090FFF7E4FD064604E0FFF7E0FDF9
:100DD000801B02281FD828688007F7D420780007D6
:100DE00022D5824E844861696C3671B1012101605F
:100DF000FFF7CEFD074604E0FFF7CAFDC01B02283F
:100E000009D830688007F7D50EE0C0F80090FFF7EA
:100E1000BFFD074605E082E0FFF7BAFDC01B0228D0
:100E20007DD830688007F7D42078400768D5DFF890
:100E3000BCB100270BF1380BDBF80000C0000BD46D
:100E4000DBF8001041F08051CBF80010DBF8000017
:100E5000012700F080500090684E3068C00510D423
:100E6000306840F480703060FFF792FD009005E03C
:100E7000FFF78EFD0099401A022850D83068C0054F
:100E8000F6D55A4EA068683601280FD0052830687C
:100E900010D020F001003060306820F00400306095
:100EA000A068B8B1FFF774FD00900FE0306840F023
:100EB0000100F4E740F004003060F7E7FFF768FD59
:100EC0000099411A41F28830814266D83068800723
:100ED000F4D50EE0FFF75CFD009007E0FFF758FD4A
:100EE0000099411A41F28830814256D83068800713
:100EF000F4D42FB1DBF8001021F08051CBF80010B2
:100F0000A069D0B3DAF800205146C2F38102022A68
:100F10004AD00228484607D0C8F8600000E03CE00C
:100F2000FFF736FD04463BE04746C8F86000FFF790
:100F30002FFD064605E000BFFFF72AFD801B0228B3
:100F40002BD828688001F7D4D4E907010843A16AA7
:100F50002B4A490802EB0141626A41EA82110843C7
:100F600094F82C1040EA01612048001F0160012024
:100F70003866FFF70DFD044605E034E0FFF708FD95
:100F8000001B022809D828688001F7D52BE000BF94
:100F9000FFF7FEFC001B022802D90320BDE8F88FF2
:100FA00028688001F4D41EE00128F7D00868E269BF
:100FB00000F48001914214D1226A00F03F01914275
:100FC0000FD147F6C071626A0140914209D1A26A0D
:100FD00000F44031914204D1E16A00F0706088422F
:100FE00001D00120DAE70020D8E7000008380240ED
:100FF0000038024000004742800E47420070004027
:101000000000FFFF10B5401EB0F1807F01D301202A
:1010100010BD4FF0E02460610F21601700F0CAFEA0
:101020000020A06107202061002010BD704770479C
:1010300070B590F83C20012A32D0012480F83C4061
:10104000022280F83D2003685A689D6822F07006ED
:101050000A6832435A60134B02689A4214D0B2F1C4
:10106000804F11D0104B9A420ED0104B9A420BD0A9
:101070000F4B9A4208D00F4B9A4205D00E4B9A4222
:1010800002D00E4B9A4204D1496825F080031943DF
:10109000916080F83D40002180F83C10084670BD0A
:1010A000022070BD00000140000400400008004024
:1010B000000C0040000401400040014000180040C6
:1010C00010B5040003D094F83D0010B107E00120F2
:1010D00010BD002084F83C00204600F00DF80220EE
:1010E00084F83D00211D206800F086FC012084F872
:1010F0003D00002010BD000010B586B0044614214C
:101100006846FFF7A7F81C4B226800211B489A424B
:1011100026D1026842F002020260006800F002007C
:10112000059016481038026842F00102026000681B
:1011300000F001000590402000900220CDE901015F
:10114000CDE9031069460E48FFF72CFB002211463B
:101150001D20FFF78BFC1D20FFF77AFC06B010BDA9
:1011600008498A42FAD1016841F00401016000682F
:1011700000F004000590F1E7000400404038024010
:10118000000002400008004070B5044690F83C00A2
:10119000012817D0012584F83C50022084F83D0036
:1011A0002068826822F0770222F47F428260086819
:1011B000502830D00DDC20284DD005DC98B3102805
:1011C0003BD148E0022070BD302844D0402834D1C3
:1011D00039E0602828D0702806D0B0F5805F2CD088
:1011E000B0F5005F29D10AE0CB68D1E90121206880
:1011F00000F073FC2068816841F0770109E0CB685A
:10120000D1E90121206800F068FC2068816841F480
:101210008041816011E0CA684968206800F06FFC75
:101220005021206807E016E0CA684968206800F08D
:10123000B7FC6021206800F05AFC84F83D50002083
:1012400084F83C0070BDCA684968206800F057FC0B
:1012500040212068EFE7226801461046EBE70000D6
:1012600070B506464FF400510C48FFF785FB0C4C57
:101270000125607850B1012807D10021304600F0E7
:10128000CCF9A06000206070257070BD0021304650
:1012900000F0C3F96060657070BD00000018024086
:1012A000000000202DE9F041044690F83C000D4676
:1012B00001283DD0012684F83C60022084F83D00DE
:1012C000AAB3042A46D02068082A55D0D5E90027B9
:1012D000E968036A23F480530362D0F81CC0036AF0
:1012E0002CF4407C4CEA07274FF6FF7C27F470472C
:1012F0000CEA013139434FF4204723F4204307EA35
:1013000002321A43C16102622068C16921F440615E
:10131000C1612068C169AA6841EA0221C0F81C10B5
:1013200084F83D60002084F83C00BDE8F08101E0D5
:101330000220FAE7D5E90012EB68206800F0F0FB24
:101340002068816921F00C01816120688169AA68A7
:1013500011430FE0D5E90012EB68206800F032FC81
:101360002068816921F44061816120688169AA68EF
:1013700041EA02218161D3E7D5E9002C2F7B016A84
:1013800021F480710162C169036A21F0030141EA1D
:101390000C0121F0F00C39074FF420674CEA116181
:1013A00023F4206307EA02221A43C1610262206823
:1013B000C16921F00C01C1612068C169AA681143AB
:1013C000ACE710B5040003D094F83D0010B107E07D
:1013D000012010BD002084F83C00204600F00CF8ED
:1013E000022084F83D00211D206800F005FB01204B
:1013F00084F83D00002010BD704710B50268044617
:1014000031B1042908D008291AD00C2908D11BE0D1
:10141000D06840F0020002E0D06840F00400D060E4
:101420000122206800F04CFB2068816801F0070170
:10143000062903D0016841F001010160002010BDC0
:10144000D06840F00800EAE7D06840F01000E6E716
:1014500010B50268044631B1042908D008291ED00D
:101460000C2908D11FE0D06820F0020002E0D0680B
:1014700020F00400D0600022206800F021FB2068EA
:10148000016A41F21112114207D1016A9210114210
:1014900003D1016821F001010160002010BDD06876
:1014A00020F00800E6E7D06820F01000E2E770B511
:1014B0000446006801694FF00005C943890715D447
:1014C000C168C943890711D4E91E01610120207751
:1014D000206880698007204602D0FFF7C1FE04E043
:1014E00000F098F8204600F096F82577206801690A
:1014F000C943490717D4C168C943490713D46FF0DA
:1015000004010161022020772068806910F4407F87
:10151000204602D0FFF7A4FE04E000F07BF820464E
:1015200000F079F8257720680169C943090716D4C6
:10153000C168C943090712D46FF008010161042092
:1015400020772068C0698007204602D0FFF788FE18
:1015500004E000F05FF8204600F05DF82577206891
:101560000169C943C90617D4C168C943C90613D460
:101570006FF010010161082020772068C06910F425
:10158000407F204602D0FFF76BFE04E000F042F8F7
:10159000204600F040F8257720680169C943C90753
:1015A00008D1C168C943C90704D1891E0161204619
:1015B00000F032F820680169C943090609D4C168FE
:1015C000C943090605D46FF0800101612046FFF789
:1015D0002DFD20680169C943490609D4C168C94382
:1015E000490605D46FF040010161204600F02AF859
:1015F00020680169C94389060BD4C168C9438906BB
:1016000007D46FF0200101612046BDE87040FFF76C
:101610000EBD70BD7047704770470246002041B153
:10162000042909D008290AD00C2901D11068006CBE
:1016300070471068406B70471068806B7047106887
:10164000C06B7047704770B5040004D094F839003F
:10165000002510B106E0012070BD84F83850204606
:1016600000F022F8242084F839002068C16821F4B1
:101670000051C160204600F0C1FA2068016921F4E0
:10168000904101612068416921F02A01416120688F
:10169000C16841F40051C160E563202084F839003D
:1016A00084F83A00002070BD10B586B004461421BD
:1016B0006846FEF7CFFD14492068884221D11348BF
:1016C000016841F010010160006800F01000059011
:1016D0000E481438016841F0010101600068694654
:1016E00000F0010005904FF4C060009002200190CE
:1016F0000120029003200390072004900448FFF784
:1017000051F806B010BD00000010014044380240FE
:10171000000002402DE9F843044690F839001F46C6
:1017200016460D46202850D1B5B1AEB194F8380018
:1017300001284AD0012084F838004FF00008C4F88E
:101740003C80212084F83900FFF722F9A6848146E5
:10175000E68484F8388026E00120BDE8F883E08C38
:10176000401EE084A0684B46B0F5805F4FF0000259
:101770004FF080012046009703D000F0D3FAE8B97B
:101780000DE000F0CFFAC8B928882168C0F308003E
:101790004860206908B16D1C05E0AD1C03E02168BC
:1017A00015F8010B4860E08C0028D8D14B46002288
:1017B00040212046009700F0B5FA08B10320CCE79D
:1017C000202084F839000020C7E70220C5E7FEE7A3
:1017D0002DE9F04186B014216846FEF73BFD224812
:1017E0000024016841F020010160016801F020013E
:1017F0000591016841F001010160016801F00101FA
:101800000591016841F0400101600068174F00F048
:1018100040000590002280213846FFF7B4F8DFF839
:1018200050804FF40056002231464046FFF7ABF897
:10183000802000900125CDE9015469463846039483
:10184000FEF7B0FFCDE9005469460A480294FEF75E
:10185000A9FF0096CDE90154694640460394FEF77E
:10186000A1FF06B0BDE8F08130380240001402400C
:10187000001802400000024010B58AB000241B4846
:101880000494059406940794089409940094019490
:1018900002941549039401605321C0E901144FF6E5
:1018A000FF71C0E903148461FFF70AFC4FF4805014
:1018B000049004A90D48FFF767FC0C48FFF781FD71
:1018C000089408A909480994FFF7B2FB0A20009080
:1018D0000120CDE901040420039000226946034859
:1018E000FFF7E0FC0AB010BD00040040200000201B
:1018F00010B586B00024114800940194029403941A
:1019000004940D49059401605321C0E90114C46099
:1019100004618461FFF7D4FB4FF480500090694666
:101920000648FFF731FC049404A904480594FFF726
:101930007FFB06B010BD00000008004060000020E2
:10194000FEE7704770477047FFF728B830B593B08F
:1019500030216846FEF77EFC14210CA8FEF77AFCC5
:1019600019480025016841F080510160006800F0CD
:10197000805011901548016821F4404141F48041A4
:1019800001600068022400F440401190012003909F
:101990001020009406940490CDE90750A820CDE9CA
:1019A000090404200B906846FFF77EF90CA90F206C
:1019B00081E83100E0020F90109002210CA8FFF79F
:1019C00087F813B030BD000040380240007000407E
:1019D0000548016841F47001016003494FF000605F
:1019E000803908607047000088ED00E00148FFF78B
:1019F0005EBD000020000020F0B50268254C264D99
:101A0000264E274F274B4FF0804CA04209D060450F
:101A100007D0A84205D0B04203D0B84201D09842C6
:101A200004D122F0700E4A6842EA0E02A0421BD096
:101A3000604519D0A84217D0B04215D0B84213D093
:101A4000984211D0184DA8420ED0184DA8420BD084
:101A5000174DA84208D0174DA84205D0164DA842F0
:101A600002D0164DA84203D122F44075CA682A4319
:101A70004D6922F080022A4302608A68C2620A68C5
:101A80008262A04201D0984201D10969016301211B
:101A90004161F0BD0000014000040040000800402A
:101AA000000C00400004014000400140004401409F
:101AB0000048014000180040001C00400020004089
:101AC00010B501F01F030121046A99408C430462A0
:101AD000016A9A401143016210BD10B5846842EA60
:101AE000032224F47F440A432243826010BD8268AB
:101AF00022F070020A4342F007018160704710B57E
:101B0000036A046A24F001040462846924F0F00486
:101B100044EA021423F00A020A438461026210BDFF
:101B200070B5046A24F0010404628469056A154EE4
:101B3000B04214D0B0F1804F11D0134EB0420ED04D
:101B4000124EB0420BD0124EB04208D0114EB042ED
:101B500005D0114EB04202D0104EB04203D124F055
:101B60000304144301E044F001041A0724F0F004D4
:101B700044EA126225F00A0301F00A011943826166
:101B8000016270BD000001400004004000080040F8
:101B9000000C0040000401400040014000180040DB
:101BA00010B5036A23F0100303628369046A23F407
:101BB000704343EA023224F0A00343EA0111826138
:101BC000016210BD30B5046A24F010040462846917
:101BD000056A24F4407444EA022222F470444FF669
:101BE000FF7202EA03322243A02425F0A00304EA94
:101BF000011119438261016230BD00002DE9F041FD
:101C0000044600680169E26821F440511143016112
:101C10002169A068E26908436169114308432168AA
:101C2000CA6849F20C639A430243CA60206841695A
:101C3000A26921F4407111434161E06919276425CB
:101C40003226B0F5004F354A354920684FF000087C
:101C500006D0884201D0904236D1FEF7E3FF35E04E
:101C6000884201D0904202D1FEF7DCFF01E0FEF78E
:101C7000C9FF61684A18A0FB070148EB0803FEF79B
:101C8000B1FA0146B0FBF5F00201B1FBF5F06FF0DF
:101C90001803584301EB800006EBC000B0FBF5F0E1
:101CA00000F0F80002EB4002B1FBF5F0584301EB05
:101CB000800006EBC000B0FBF5F000F007002168E3
:101CC00010448860BDE8F081FEF79CFF61688B0FCF
:101CD0008A00A0FB0701FEF785FA0146B0FBF5F08C
:101CE0006FF01802504301EB800006EB0010B0FBD0
:101CF000F5F000F0F002B1FBF5F002EB0012B1FBE1
:101D0000F5F06FF01803584301EB800006EB00106C
:101D1000B0FBF5F000F00F00D1E700000014014027
:101D2000001001402DE9F041984617460E46044642
:101D3000069D1DE0681C1BD02DB1FEF729FEA0EB0F
:101D40000800A84214D92068C16821F4D071C1608C
:101D50002068416921F001014161202084F83900A7
:101D600084F83A00002084F838000320BDE8F081B0
:101D70002068006836EA000004D00020B842D9D0BC
:101D80000020F3E70120F9E7FEE700000FB4084B5D
:101D900010B504A902AA039800F0EEF8044602A9BF
:101DA000002000F080FC204610BC5DF814FB000011
:101DB000A72600080907090E002804DB00F1E0202F
:101DC00080F80014704700F00F0000F1E02080F868
:101DD000141D704702E008C8121F08C1002AFAD17A
:101DE00070477047002001E001C1121F002AFBD19B
:101DF000704700002DE9FF5F82B00021DDE904306B
:101E0000020DDDF840B0034318D044F61050A2F2A2
:101E1000FF3242431514119801281FD0A5EB0B0087
:101E2000401C5FEA000A4FF000064E4FDFF8389181
:101E3000B046504615D5CAF1000413E011980124AC
:101E40004AA3012801D16FEA0B010298119AC0E957
:101E50000031C0E9024206B0BDE8F09FCBF10000BE
:101E6000DFE704460021404A491842EB0450CDE91F
:101E7000001012E0E00707D032463B464046494694
:101E8000FEF7E9FA8046894632463B461046194637
:101E9000FEF7E1FA06460F466410002CEAD1DDE9B0
:101EA0000401DDE90023BAF1000F06DAFEF7D3FAE8
:101EB00042464B46FEF7CFFA05E0FEF73EFB4246B0
:101EC0004B46FEF73AFB04460E460022284BFEF72F
:101ED000BBFB03D84FF0FF30014607E00022254B43
:101EE00020463146FEF710FAFEF796FB102409E073
:101EF000002C0ADB0A220023FEF774F9039B303220
:101F00001A55641E50EA0102F2D1641C039AC4F10E
:101F100011031444119A012A03D0012208430DD160
:101F20000AE0084304D000204FF0110B119072E733
:101F3000A3EB0B056D1E0DE05B4504DD4FF00002C9
:101F400005F1010504E003DA4FF00002A5F10105F7
:101F5000002AECD002981199C0E90231C0E900458D
:101F600079E70000000014400000F03F300000005E
:101F70000000F0430000E03F2DE9FF4F95B09B4685
:101F80008946064600250FE2252877D100242746FA
:101F9000F84A0121059400E0044316F8013F203B74
:101FA00001FA03F01042F7D130782A2811D06FF0EF
:101FB0002F033078A0F13002092A16D8059A44F090
:101FC000020402EB820203EB42021044761C0590ED
:101FD000EFE759F8042B0592002A03DA504244F443
:101FE0000054059044F00204761C30782E2816D157
:101FF00016F8010F44F004042A280DD06FF02F02C8
:102000003078A0F13003092B09D807EB870302EBE6
:102010004303C718761CF3E759F8047B761C307825
:102020006C280FD006DC4C2817D068280DD06A2801
:1020300014D104E0742810D07A280FD10DE044F4B4
:1020400000140AE044F4801401E044F4401472786F
:10205000824202D104F58014761C761C3078662802
:102060000BD013DC582877D009DC002875D0452820
:10207000F6D04628F4D047281AD19DE118E063280D
:1020800035D0642879D0652812D195E1702873D0B5
:1020900008DC6728F1D069286FD06E280DD06F2832
:1020A00006D1B5E073282CD0752875D0782874D067
:1020B0005A46179990476D1C75E1C4F302500228E7
:1020C00009D003280DD0D9F8001004280DD00D60D8
:1020D00009F1040967E1D9F80010EA17C1E90052D3
:1020E000F6E7D9F800100D80F2E70D70F0E719F867
:1020F000041B8DF8001000208DF80100EA46012035
:1021000003E059F804AB4FF0FF3061074FF00001D6
:1021100002D40DE008F101018846B9420FDA80458A
:10212000F8DB1AF808100029F4D108E008F10101E1
:1021300088468142FADB1AF808100029F6D1059882
:102140005B46A0EB080721463846179A00F094FA40
:10215000284400EB080507E04DE029E10DE01AF8FE
:10216000010B5A4617999047B8F10108F7D25B4620
:1021700021463846179A13E142E00A220092C4F33E
:1021800002524FF0000A022A08D059F804CB032A61
:102190004FEAEC710AD00DE029E02AE009F10701CD
:1021A00021F00702F2E802C1914609E00FFA8CFC27
:1021B0004FEAEC71042A03D14FFA8CFC4FEAEC7120
:1021C000002907DA0A460021DCF1000C61EB02016C
:1021D0002D2202E0220504D52B228DF804200122B5
:1021E00003E0E20701D02022F7E7904659E00A21F8
:1021F00002E010220DE010214FF0000A00910BE0E8
:1022000010224FF0000A44F004040827009203E073
:1022100008224FF0000A0092C4F30252022A05D0AD
:1022200059F804CB0021032A08D009E009F107017D
:1022300021F00702F2E802C1914605E01FFA8CFC8A
:10224000042A01D10CF0FF0C4FF00008220728D51A
:10225000702806D0009B83F0100353EA0A0305D0D0
:102260000EE040228DF80420012208E05CEA010221
:1022700006D030228DF804208DF805000222904609
:10228000009B83F0080353EA0A030AD15CEA0102C7
:1022900001D1620705D530228DF804204FF00108E6
:1022A0007F1E582804D034A003900EA802900DE0A1
:1022B00036A0F9E753466046009AFDF793FF84463F
:1022C0000398825C0298401E029002705CEA010052
:1022D000F0D1029806A9081A00F1200A600702D579
:1022E00024F4803400E00127574502DDA7EB0A0003
:1022F00000E0002000EB0A01009005984144401ADC
:102300000590E00306D45B462146179A059800F035
:10231000B3F90544002706E001A85A46C05D1799A5
:1023200090476D1C7F1C4745F6DBE0030CD55B46F0
:102330002146179A059800F09FF9054404E03020E3
:102340005A46179990476D1C0099481E0090002925
:10235000F5DC08E0029802995A460078491C02917F
:10236000179990476D1CBAF10001AAF1010AF1DC3E
:1023700065E1000009280100303132333435363749
:1023800038396162636465660000000030313233C1
:102390003435363738394142434445460000000061
:1023A00000F058F90544761C307800287FF4ECAD35
:1023B00019B02846BDE8F08F620700D4062709F15E
:1023C000070222F0070CFCE80223E14603F0004874
:1023D0005FEA080C02D00FF2702C0DE05FEA045C9B
:1023E00002D50FF2682C07E05FEAC47C02D00FF23E
:1023F000602C01E0AFF2700C4FF0FF3823F0004387
:10240000CDF850C065280CD006DC452809D04628F8
:102410001DD047283DD13DE0662818D067287ED1E1
:1024200038E00021112F01DB112000E0781CCDE9FC
:10243000000106A90EA8FFF7DDFCDDE90F010E9AE9
:1024400003910021009207F1010A04914DE04FF041
:1024500000400097CDE9011006A90EA8FFF7CAFCBD
:10246000DDE90F0203920E9B11990022DDF80CA00A
:102470000093049211B9791C00EB010AB7EB0A0032
:1024800004D4C0F1FF3007F1010A0490AAEB070061
:10249000019044E0012F00DA01270021112F01DD16
:1024A000112000E03846CDE9000106A90EA8FFF78B
:1024B000A1FCDDE90F010E9A039100210491009225
:1024C000BA4621070CD40399514500DA8A46BAF17D
:1024D000010F05DD009AAAF10101515C302908D0F5
:1024E000B84202DA10F1040F06DA0121CDE9011039
:1024F00015E0AAF10101E9E7002805DC049901448F
:102500000491AAEB000102E0411C514500DD8A461E
:102510000499401A401C01904FF00040029020079F
:1025200004D40198504501DBCDF8048000208DF8DB
:102530004F0002980DF14F07B0F1004F25D02B202E
:102540000E9002984FF0020800280CDA40420290E8
:102550002D200E9007E00A210298FDF7A0FE3031F1
:10256000029007F8011DB8F10001A8F10108F2DCA2
:1025700002980028EFD1791E0E980870307800F08C
:10258000200040F0450007F8020D12A8C01B00F122
:1025900007081498007800B1012000EB0A010198A7
:1025A00001EBE07105984144401A401E0590E0039C
:1025B00006D45B462146179A059800F05DF805445D
:1025C0001498007818B15A46179990476D1CE0038B
:1025D00024D55B462146179A059800F04DF805442E
:1025E0001CE00498002807DBDDE90301884203DDD5
:1025F0000098405C179901E0179930205A4690479F
:10260000049805F10105401C04900198401E0190BA
:1026100004D12E205A46179990476D1CBAF100013B
:10262000AAF1010ADDDC05E017F8010B5A461799FB
:1026300090476D1CB8F10001A8F10108F4DC5B467D
:102640002146179A0598ABE62D0000002B000000EC
:10265000200000002DE9F041044600251E461746E3
:10266000880404D405E039462020B0476D1C641E60
:10267000F9D52846BDE8F0812DE9F0410446002552
:102680001E469046C80301D5302700E02027880465
:1026900004D505E041463846B0476D1C641EF9D5A7
:1026A0002846BDE8F0810A68531C0B601070704723
:1026B000FEF77CF9FFF74AF9FFF78AF8FFF718F9F8
:1026C00039483849002501604FF4E131C0E901156E
:1026D0000C21C560C0E904518561C561FEF7B3FFF7
:1026E000FFF7CAF8DFF8C480314C0022802146464B
:1026F0004046FEF748F9032000F06CF801228021E3
:102700003046FEF740F90A2000F064F800228021EC
:102710003046FEF738F9244800218038FEF76DFE78
:10272000FEF736F906464FF4FA77207820B9FEF71F
:102730002FF9801BB842F8D31B4825700021803840
:10274000FEF786FED4E90110884209D9401A00EE4E
:10275000100ADFED180AB8EE400A20EE200A01E068
:102760009FED150A84ED030A10EE100AFDF784FDB3
:1027700041EC100B0C4853EC102B10A14030FFF72C
:1027800005FB09484030FDF770FD074982B264231C
:1027900040310548FEF7BEFF4FF47A70FDF7F0FFB9
:1027A000A3E7000000100140A00000200014024038
:1027B00000000020287E8C3C0000000044697374F7
:1027C000616E63652028636D2920203D20252E3110
:1027D000660D0A00022800D202200D49401E086042
:1027E0000B49012018390860081F016821F0010118
:1027F000016007492C390A6842F001020A60016849
:10280000C907FCD0016821F0010101607047000098
:102810002C0800400000000000000000010203043A
:102820000607080900000000010203044C28000804
:102830000000002020000000D41D00086C280008C3
:102840002000002028050000E41D00080000000012
:102850000000000000000000000000000100000077
:0C28600010000000000000000024F40044
:04000005080001AD41
:00000001FF
