:020000040800F2
:1000000018060020C1010008331A0008571800081C
:10001000311A0008310400086D1E000800000000BD
:10002000000000000000000000000000371A000877
:100030003304000800000000351A0008391A0008CF
:10004000DB010008DB010008DB010008DB01000820
:10005000DB010008DB010008DB010008DB01000810
:10006000DB010008DB010008DB010008DB01000800
:10007000DB010008DB010008DB010008DB010008F0
:10008000DB010008DB010008DB010008DB010008E0
:10009000DB010008DB010008DB010008DB010008D0
:1000A000DB010008DD1A0008DB010008DB010008A5
:1000B000DB010008E91A0008DB010008DB01000889
:1000C000DB010008DB010008DB010008DB010008A0
:1000D000DB010008DB010008DB010008DB01000890
:1000E000DB010008DB010008DB010008DB01000880
:1000F000DB010008DB010008DB010008DB01000870
:10010000DB010008DB010008DB010008DB0100085F
:10011000DB010008DB010008DB010008DB0100084F
:10012000DB010008DB010008DB010008DB0100083F
:10013000DB010008DB010008DB010008DB0100082F
:10014000DB010008DB010008DB010008DB0100081F
:10015000DB010008DB010008DB010008DB0100080F
:10016000DB010008DB010008DB010008DB010008FF
:10017000DB010008DB010008DB01000800000000D3
:10018000DB010008DB010008DB010008DB010008DF
:10019000DB010008DB010008DB010008DB010008CF
:1001A000DB010008DB010008DB010008DFF80CD0F0
:1001B00000F098F800480047392000081806002091
:1001C0000648804706480047FEE7FEE7FEE7FEE7F1
:1001D000FEE7FEE7FEE7FEE7FEE7FEE7C11A0008DE
:1001E000AD0100082DE9F05F0546002092469B46D0
:1001F00088460646814640241BE02846414647463D
:10020000224600F05EF853465A46C01A914110D378
:1002100011461846224600F045F82D1A67EB0108F2
:100220004F4622460120002100F03CF817EB000960
:100230004E41201EA4F10104DFDC484631462A4627
:100240004346BDE8F09FD2B201E000F8012B491E01
:10025000FBD270470022F6E710B513460A46044663
:100260001946FFF7F0FF204610BD421C10F8011B95
:100270000029FBD1801A704730B50B46014600209B
:100280002022012409E021FA02F59D4205D303FA58
:1002900002F5491B04FA02F52844151EA2F10102D9
:1002A000F1DC30BD202A04DB203A00FA02F1002004
:1002B00070479140C2F1200320FA03F319439040A4
:1002C0007047202A04DB203A21FA02F0002170470F
:1002D00021FA02F3D040C2F12002914008431946AE
:1002E00070470000064C074D06E0E06840F001034F
:1002F00094E8070098471034AC42F6D3FFF75AFF52
:100300000021000820210008464910B54A6822F45F
:1003100040324A604A6843681A434A6001684A6842
:1003200022F480724A6001684A68036942EA032243
:100330004A6001684A6822F040724A6001684A686F
:1003400083681A434A6001688A6822F400628A60FE
:1003500001688A68C3681A438A60816A6FF07062B4
:10036000D14201688A6822F070628A6001688A68F6
:100370000CD0836A1A438A6001688A6822F040526E
:100380008A6001688A68C36A1A4301E022F0405219
:100390008A6001688A6822F002028A6001688A68BD
:1003A000037E42EA43028A6090F820100029016827
:1003B0004A680FD042F400624A6001684A6822F439
:1003C00060424A6001684A68174C436A04EB433351
:1003D0001A4301E022F400624A600168CA6A22F40A
:1003E0007002CA620168CA6A838B104C04EB035323
:1003F0001A43CA6201688A6822F400728A6001683E
:100400008A6890F8303042EA43228A6001688A683C
:1004100022F480628A6001688A68406942EA80202A
:10042000886010BD0023014000E0FFFF0000F0FFE6
:10043000FEE7704778B50024009490F83C20012A2C
:1004400019D0012280F83C200A6807230568092A90
:1004500013D9EE680A3A02EB420293409E43EE60E3
:100460000B788A680A3B03EB43039A400368DD6814
:100470002A43DA6010E0022078BD2E6902EB4202C6
:1004800093409E432E610B788A6803EB43039A40A6
:1004900003681D692A431A614A681F23072A13D279
:1004A00005686E6B521E02EB820293409E436E63A0
:1004B0000A8893B20A79521E02EB820293400268C4
:1004C000556B2B43536327E005680D2A12D22E6B20
:1004D000D21F02EB820293409E432E630B790A885F
:1004E000DB1F92B203EB83039A4003681D6B2A4320
:1004F0001A6311E0EE6A0D3A02EB820293409E43CA
:10050000EE620B790A880D3B92B203EB83039A40AB
:100510000368DD6A2A43DA621B4B0568194A9D426B
:100520000AD10D68122D07D1556825F400055560D4
:10053000556845F48005556005689D421DD1134DF1
:100540000B68AB4201D0112B17D1536823F4800301
:100550005360536843F4000353600968A9420CD107
:100560000B490C4A0968B1FBF2F101EB810149002A
:1005700000E0491E00910029FBD180F83C4000209A
:1005800078BD00000023014000200140120000104F
:100590002000002040420F000068C06C704770B51A
:1005A00004004FF0000503D0206C002610B107E0D6
:1005B000012070BD204600F01DF8666484F83C60A0
:1005C000206CC00610D4206C20F4885040F002004B
:1005D00020642046FFF798FE6664206C20F002003D
:1005E00040F00100206400E0012584F83C602846CA
:1005F00070BD000030B587B0044614216846FFF78F
:1006000029FE1F4824681D4D00221D49143803236C
:10061000AC4216D10C6844F480740C60096801F493
:1006200080710591016841F001010160006869462F
:1006300000F0010005900620CDE900030292114868
:1006400018E0114DAC4217D10C6844F480640C6082
:10065000096801F480610591016841F020010160A1
:100660000068694600F0200005904020CDE90003B5
:100670000292064800F004F907B030BD00200140A6
:1006800044380240000002400022014000140240B1
:100690002DE9F041044600680D4681684FF00007DF
:1006A00049050BD58068C00508D5206C40F02000B6
:1006B000206484F83C700120BDE8F08100F0D0F99E
:1006C00006460FE0681C0DD025B100F0C9F9801B6B
:1006D000A84207D9206C40F00400206484F83C70E4
:1006E0000320E9E7206800688007EBD521686FF0F8
:1006F00012000860206C40F400702064206881685B
:1007000011F0405F13D1217E89B9C16A11F4700FD5
:1007100002D0806840050AD4206C20F480702064E8
:10072000206CC00403D4206C40F001002064002041
:10073000C2E7000018B50021009190F83C20012A82
:1007400007D0012280F83C2002689368DB0702D0C2
:1007500011E0022018BD936843F0010393602A4A18
:100760002A4B1268B2FBF3F202EB420200E0521E87
:100770000092002AFBD102689368DB0741D0036C2A
:1007800040F20164A34343F48073036453685B0540
:1007900005D5036C23F4005343F480530364036CC6
:1007A000DB0404D5436C23F00603436400E041649A
:1007B00080F83C1016496FF0220313604968006806
:1007C000CA06144906D088421BD1816811F0405FE7
:1007D00013D016E08842F8D00F4A904203D1D1F8E6
:1007E0000423D206F1D00D4A90420AD1D1F8041365
:1007F00001F01F011029E8D303E0816841F0804136
:100800008160002018BD00002000002040420F0041
:10081000002301400020014000210140002201404E
:1008200090F83C1001290CD0012180F83C1001689F
:100830008A6822F001028A6001688968C90702D0CB
:1008400007E002207047016C21F4885141F001015A
:100850000164002180F83C100846704770B50446DA
:1008600000F0FEF80546601C02D0044800780444FD
:1008700000F0F6F8401BA042FAD370BD140000202F
:100880002DE9F84F00224FF0010803254FF00F0E1D
:100890000B6808FA02F42340A3426ED14E68012E81
:1008A00005D0022E03D0112E01D0122E12D186684F
:1008B0004FEA420C05FA0CF7BE43CF6807FA0CF773
:1008C000374387604668A6430C79C4F3001494400C
:1008D00034434460C668570005FA07FC8C6826EA72
:1008E0000C06BC403443C4604C68022C01D0122C6E
:1008F00013D1D40800EB8404A346D4F82090540705
:100900004FEAD46A0EFA0AF629EA06090E6906FACF
:100910000AF646EA0906CBF8206004680E7924EA54
:100920000C0406F00306BE40264306604C68E40053
:100930006FD53B4C266846F480462660246822F03A
:10094000030604F480440094364C3444A446D4F89E
:1009500008489607360F0EFA06F7BC43324FB842E6
:1009600001D100272EE0314FB84201D1012729E003
:100970002F4FB84202D1022724E04AE02D4FB8425F
:1009800001D103271EE02C4FB84201D1042719E002
:100990002A4FB84201D1052714E0294FB84201D1AE
:1009A00006270FE0274FB84201D107270AE0264F5C
:1009B000B84201D1082705E0244FB84201D10927E8
:1009C00000E00A27B7402743CCF80878204E346867
:1009D0004F689C43FF0300D51C4334601C4E361DFA
:1009E00034684F689C43BF0300D51C433460184EE5
:1009F000083634684F689C43FF0200D51C433460BE
:100A0000134E0C3634684F689C43BF0200D51C431C
:100A10003460521C102AFFF43BAFBDE8F88F000091
:100A2000443802400030014000000240000402400F
:100A300000080240000C0240001002400014024076
:100A400000180240001C0240002002400024024026
:100A5000003C01400AB1816170470904FBE70000D6
:100A60000148806870470000140000200248816837
:100A70000278114481607047140000200B4810B5C3
:100A8000016841F400710160016841F48061016016
:100A9000016841F480710160032000F089F80020B2
:100AA00000F006F800F03EF8002010BD003C0240C7
:100AB00010B5014688B00022192000F059F819201D
:100AC00000F048F813480024016841F0010101607A
:100AD000006805A900F001000690684600F014F9CE
:100AE00000F042F90C494000B0FBF1F10C480B4A10
:100AF000491E026040F2E732C0E90324C0E9011454
:100B000000F06CFB10B1012008B010BD044800F0EB
:100B1000C9FBF9E74438024040420F0000000140A1
:100B2000D80100200A4808B5016841F480410160FD
:100B3000006800F4804000900548001F016841F003
:100B400080510160006800F08050009008BD0000F6
:100B500044380240002809DB00F01F0201219140C7
:100B60004009800000F1E020C0F80011704700004B
:100B7000F0B40E4B1B680C46C3F30223C3F1070508
:100B8000042D00D90425191D072901D2002300E0F6
:100B9000DB1E012606FA05F1491E214099409E40C0
:100BA000761E16403143F0BC01F076B90CED00E042
:100BB000064900F0070208684FF6FF03184040EAB4
:100BC0000220034A10430860704700000CED00E06B
:100BD0000000FA052DE9F0470E46050065D0DFF864
:100BE0001481D8F80000F7B200F00F00B04207D22D
:100BF00088F80070D8F8000000F00F00B04254D11F
:100C000028683D4C810712D5400703D5206840F481
:100C1000E05020602878000703D5206840F4604049
:100C200020602068A96820F0F00008432060287840
:100C3000C0072DD0304968680839012812D0022831
:100C400013D0032811D00968890700292DDA2168FB
:100C500021F0030101432160FFF702FF814641F2C9
:100C6000883A0EE009688903EFE709688901ECE733
:100C7000FFF7F6FEA0EB0901514502D90320BDE8BC
:100C8000F0872068696800F00C00B0EB810FEFD1AD
:100C9000D8F80010404601F00F01B14207D90770A3
:100CA000006800F00F00B04201D00120E7E728788B
:100CB000400705D52068E96820F4E050084320602B
:100CC0002878000706D52068296920F4604040EAAA
:100CD000C100206000F058F82168084AC1F30311F0
:100CE000515CC8400649086006480068FFF7E0FE0E
:100CF0000020C4E7003C024008380240E820000819
:100D000020000020180000200F2202600C4A136807
:100D100003F003034360136803F0F0038360136878
:100D200003F4E053C36012684FF4E05303EAD202C5
:100D300002610448006800F00F000860704700007E
:100D400008380240003C0240044805490068096830
:100D5000044AC1F38221515CC84070472000002042
:100D600008380240F820000804480549006809686E
:100D7000044AC1F34231515CC84070472000002052
:100D800008380240F8200008154810B5006810F037
:100D90000C02144813D01449042A0FD0082A0ED18B
:100DA0000F4C241F2268236802F03F025B0207D524
:100DB0002068C0F38810A0FB010106E0084610BDC2
:100DC0002168C1F38811A1FB00010023FFF70AFA93
:100DD0002168C1F30141491C4900B0FBF1F010BD8D
:100DE000083802400024F40040787D012DE9F84FD6
:100DF000040076D02078DFF838A3CE4DC00749D064
:100E0000DAF800105046C1F38101012908D00068CA
:100E1000C0F3810002280AD1281D0068400206D5CF
:100E20002868800336D560680028E2D032E0606828
:100E3000B0F5803F10D0B0F5A02F286810D020F476
:100E400080302860286820F4802028606068A0B185
:100E5000FFF706FE06460CE0286840F48030F4E711
:100E600040F480202860F7E7FFF7FAFD801B642834
:100E700073D828688003F7D50CE0FFF7F1FD06462C
:100E800005E000BFFFF7ECFD801B6428F0D8286860
:100E90008003F7D42078DFF8A08280074FF00009A4
:100EA0003ED5DAF80010504611F00C0F09D000685A
:100EB000C0F3810002280BD19D48001F006840024A
:100EC00006D42868800715D5E068012809D111E00B
:100ED000E068B8B10120C8F80000FFF7C1FD064680
:100EE00005E020E1FFF7BCFD801B0228C0D8286880
:100EF0008007F7D52868216920F0F80040EAC10092
:100F000028600DE0C8F80090FFF7AAFD064604E04F
:100F1000FFF7A6FD801B02281FD828688007F7D49A
:100F20002078000722D5824E844861696C3671B101
:100F300001210160FFF794FD074604E0FFF790FDF3
:100F4000C01B022809D830688007F7D50EE0C0F82A
:100F50000090FFF785FD074605E082E0FFF780FD82
:100F6000C01B02287DD830688007F7D4207840075E
:100F700068D5DFF8BCB100270BF1380BDBF80000B7
:100F8000C0000BD4DBF8001041F08051CBF800100A
:100F9000DBF80000012700F080500090684E3068B8
:100FA000C00510D4306840F480703060FFF758FD01
:100FB000009005E0FFF754FD0099401A022850D830
:100FC0003068C005F6D55A4EA068683601280FD0A3
:100FD0000528306810D020F001003060306820F023
:100FE00004003060A068B8B1FFF73AFD00900FE050
:100FF000306840F00100F4E740F004003060F7E7AB
:10100000FFF72EFD0099411A41F28830814266D8DF
:1010100030688007F4D50EE0FFF722FD009007E06E
:10102000FFF71EFD0099411A41F28830814256D8DF
:1010300030688007F4D42FB1DBF8001021F0805124
:10104000CBF80010A069D0B3DAF800205146C2F303
:101050008102022A4AD00228484607D0C8F8600018
:1010600000E03CE0FFF7FCFC04463BE04746C8F8E4
:101070006000FFF7F5FC064605E000BFFFF7F0FC57
:10108000801B02282BD828688001F7D4D4E90701F7
:101090000843A16A2B4A490802EB0141626A41EA0E
:1010A0008211084394F82C1040EA01612048001F87
:1010B000016001203866FFF7D3FC044605E034E008
:1010C000FFF7CEFC001B022809D828688001F7D55D
:1010D0002BE000BFFFF7C4FC001B022802D903204D
:1010E000BDE8F88F28688001F4D41EE00128F7D00D
:1010F0000868E26900F48001914214D1226A00F08C
:101100003F0191420FD147F6C071626A014091429E
:1011100009D1A26A00F44031914204D1E16A00F0A1
:101120007060884201D00120DAE70020D8E7000093
:10113000083802400038024000004742800E474213
:10114000007000400000FFFF7047704770B590F8D6
:101150003C20012A32D0012480F83C40022280F851
:101160003D2003685A689D6822F070060A68324381
:101170005A60134B02689A4214D0B2F1804F11D0DA
:10118000104B9A420ED0104B9A420BD00F4B9A4202
:1011900008D00F4B9A4205D00E4B9A4202D00E4B0C
:1011A0009A4204D1496825F080031943916080F880
:1011B0003D40002180F83C10084670BD022070BD03
:1011C000000001400004004000080040000C004006
:1011D00000040140004001400018004010B5040028
:1011E00003D094F83D0010B107E0012010BD0020AD
:1011F00084F83C00204600F00DF8022084F83D0001
:10120000211D206800F076FC012084F83D000020BC
:1012100010BD000010B586B0044614216846FFF7E3
:1012200019F81C4B226800211B489A4226D10268FB
:1012300042F002020260006800F0020005901648C9
:101240001038026842F001020260006800F00100FC
:101250000590402000900220CDE90101CDE9031066
:1012600069460E48FFF70CFB002211461D20FFF7D0
:101270007FFC1D20FFF76EFC06B010BD08498A42B6
:10128000FAD1016841F004010160006800F0040037
:101290000590F1E7000400404038024000000240A1
:1012A000000800400168CA6842F00102CA60006894
:1012B000816801F00701062903D0016841F00101AE
:1012C00001600020704770B5044690F83C0001288A
:1012D00017D0012584F83C50022084F83D00206896
:1012E000826822F0770222F47F42826008685028E8
:1012F00030D00DDC20284DD005DC98B310283BD130
:1013000048E0022070BD302844D0402834D139E074
:10131000602828D0702806D0B0F5805F2CD0B0F5BA
:10132000005F29D10AE0CB68D1E90121206800F0F3
:1013300045FC2068816841F0770109E0CB68D1E97C
:101340000121206800F03AFC2068816841F4804166
:10135000816011E0CA684968206800F041FC5021B2
:10136000206807E016E0CA684968206800F08AFC37
:101370006021206800F02CFC84F83D50002084F8A7
:101380003C0070BDCA684968206800F029FC402113
:101390002068EFE7226801461046EBE770B50A4C7B
:1013A0000125A17849B1012906D1002100F078F981
:1013B000A0600020A070257070BD002100F070F9C1
:1013C0006060A57070BD0000000000202DE9F041B4
:1013D000044690F83C000D4601283DD0012684F8D3
:1013E0003C60022084F83D00AAB3042A46D020685D
:1013F000082A55D0D5E90027E968036A23F4805309
:101400000362D0F81CC0036A2CF4407C4CEA072726
:101410004FF6FF7C27F470470CEA013139434FF453
:10142000204723F4204307EA02321A43C1610262D3
:101430002068C16921F44061C1612068C169AA685E
:1014400041EA0221C0F81C1084F83D60002084F8B5
:101450003C00BDE8F08101E00220FAE7D5E9001286
:10146000EB68206800F0CEFB2068816921F00C0158
:10147000816120688169AA6811430FE0D5E90012F3
:10148000EB68206800F010FC2068816921F440615D
:10149000816120688169AA6841EA02218161D3E7FC
:1014A000D5E9002C2F7B016A21F480710162C169AA
:1014B000036A21F0030141EA0C0121F0F00C390725
:1014C0004FF420674CEA116123F4206307EA0222FB
:1014D0001A43C16102622068C16921F00C01C16137
:1014E0002068C169AA681143ACE710B5040003D0B5
:1014F00094F83D0010B107E0012010BD002084F8F1
:101500003C00204600F00CF8022084F83D00211D2C
:10151000206800F0EFFA012084F83D00002010BDA3
:10152000704770B50446006801694FF00005C94373
:10153000890715D4C168C943890711D4E91E01611F
:1015400001202077206880698007204602D0FFF7BD
:1015500025FF04E000F098F8204600F096F8257783
:1015600020680169C943490717D4C168C9434907BD
:1015700013D46FF004010161022020772068806994
:1015800010F4407F204602D0FFF708FF04E000F08F
:101590007BF8204600F079F8257720680169C94377
:1015A000090716D4C168C943090712D46FF00801AE
:1015B0000161042020772068C0698007204602D09E
:1015C000FFF7ECFE04E000F05FF8204600F05DF865
:1015D000257720680169C943C90617D4C168C94382
:1015E000C90613D46FF0100101610820207720682C
:1015F000C06910F4407F204602D0FFF7CFFE04E020
:1016000000F042F8204600F040F825772068016994
:10161000C943C90708D1C168C943C90704D1891E94
:101620000161204600F032F820680169C9430906CB
:1016300009D4C168C943090605D46FF0800101616E
:101640002046FFF781FD20680169C943490609D496
:10165000C168C943490605D46FF0400101612046C5
:1016600000F033F820680169C94389060BD4C168CA
:10167000C943890607D46FF0200101612046BDE807
:101680007040FFF762BD70BD704770470068034946
:10169000884201D1FFF7EAB970470000000001401D
:1016A0000246002041B1042909D008290AD00C299A
:1016B00001D11068006C70471068406B704710686B
:1016C000806B70471068C06B7047704770B504003E
:1016D00004D094F83900002510B106E0012070BD57
:1016E00084F83850204600F023F8242084F839008C
:1016F0002068C16821F40051C160204600F0F0FA72
:101700002068016921F4904101612068416921F05C
:101710002A0141612068C16841F40051C160E5635C
:10172000202084F8390084F83A00002070BD0000C1
:1017300010B586B0044614216846FEF78BFD1449A7
:101740002068884221D11348016841F010010160EE
:10175000006800F0100005900E481438016841F050
:10176000010101600068694600F0010005904FF436
:10177000C06000900220019001200290032003909D
:10178000072004900448FFF77BF806B010BD000066
:101790000010014044380240000002402DE9F843A7
:1017A000044690F839001F4616460D46202850D1B1
:1017B000B5B1AEB194F8380001284AD0012084F8C0
:1017C00038004FF00008C4F83C80212084F839002C
:1017D000FFF746F9A6848146E68484F8388026E03F
:1017E0000120BDE8F883E08C401EE084A0684B46F1
:1017F000B0F5805F4FF000024FF080012046009767
:1018000003D000F001FBE8B90DE000F0FDFAC8B923
:1018100028882168C0F308004860206908B16D1C61
:1018200005E0AD1C03E0216815F8010B4860E08C71
:101830000028D8D14B46002240212046009700F0D6
:10184000E3FA08B10320CCE7202084F83900002017
:10185000C7E70220C5E7FEE77FB5002414480094DF
:101860000194029411490394C0E900140125056113
:101870008460047680F820400E49C0E90A140226EC
:10188000C661C46080F830404561FEF788FE00956F
:10189000CDE9015469460648FEF7CCFD009669463D
:1018A00003480196FEF7C6FD7FBD00000020014001
:1018B000240000200100000F7FB50024114800948F
:1018C000019402940E490394C0E9001484600461F9
:1018D000047680F820400C49C0E90A140125C5614E
:1018E000C46080F830404561FEF759FE0420CDE920
:1018F0000005694602940348FEF79CFD7FBD000089
:10190000002201406C0000200100000F30B587B0BC
:1019100014216846FEF79EFC11480024016841F03E
:1019200020010160016801F020010591016841F08A
:101930000101016000680B4D00F001000590224696
:1019400080212846FFF786F8802000900120CDE90D
:101950000104694628460394FEF792FF07B030BDA4
:10196000303802400000024010B58AB000241B4805
:10197000049405940694079408940994009401949F
:1019800002941549039401600721C0E901144FF640
:10199000FF71C0E903148461FFF720FC4FF480500D
:1019A000049004A90D48FFF78EFC0C48FFF79DFD3D
:1019B000089408A909480994FFF7C8FB0A20009079
:1019C0000120CDE901040420039000226946034868
:1019D000FFF7FCFC0AB010BD00040040B40000207A
:1019E00010B586B000241148009401940294039429
:1019F00004940D49059401600721C0E90114C460F5
:101A000004618461FFF7EAFB4FF48050009069465F
:101A10000648FFF758FC049404A904480594FFF70E
:101A200095FB06B010BD000000080040F400002047
:101A3000FEE77047704770477047000030B593B0BD
:101A400030216846FEF706FC14210CA8FEF702FCC4
:101A500019480021026842F080520260006800F0DC
:101A6000805011901548026822F4404242F48042AE
:101A700002600068022400F44040119001200390AD
:101A8000102080250490CDE90805CDE90641009499
:101A90000420CDE90A406846FFF7A8F90CA90F20F9
:101AA00081E831004FF4C0500F90109001210CA834
:101AB000FFF790F813B030BD40380240007000408E
:101AC0000548016841F47001016003494FF000606E
:101AD000803908607047000088ED00E00148FFF79A
:101AE00020BD0000D80100200148FFF71ABD00000A
:101AF000B4000020F0B50268254C264D264E274F35
:101B0000274B4FF0804CA04209D0604507D0A84237
:101B100005D0B04203D0B84201D0984204D122F09F
:101B2000700E4A6842EA0E02A0421BD0604519D0EE
:101B3000A84217D0B04215D0B84213D0984211D065
:101B4000184DA8420ED0184DA8420BD0174DA842F0
:101B500008D0174DA84205D0164DA84202D0164D08
:101B6000A84203D122F44075CA682A434D6922F085
:101B700080022A4302608A68C2620A688262A042C6
:101B800001D0984201D10969016301214161F0BD91
:101B9000000001400004004000080040000C00402C
:101BA0000004014000400140004401400048014061
:101BB00000180040001C00400020004010B5846860
:101BC00042EA032224F47F440A432243826010BD88
:101BD000826822F070020A4342F007018160704778
:101BE00010B5036A046A24F001040462846924F0D5
:101BF000F00444EA021423F00A020A4384610262F8
:101C000010BD000070B5046A24F001040462846908
:101C1000056A154EB04214D0B0F1804F11D0134E6A
:101C2000B0420ED0124EB0420BD0124EB04208D08D
:101C3000114EB04205D0114EB04202D0104EB0420B
:101C400003D124F00304144301E044F001041A0713
:101C500024F0F00444EA126225F00A0301F00A01BC
:101C600019438261016270BD000001400004004020
:101C700000080040000C004000040140004001400A
:101C80000018004010B5036A23F010030362836953
:101C9000046A23F4704343EA023224F0A00343EAC7
:101CA00001118261016210BD30B5046A24F0100494
:101CB00004628469056A24F4407444EA022222F42E
:101CC00070444FF6FF7202EA03322243A02425F04B
:101CD000A00304EA011119438261016230BD0000D2
:101CE0002DE9F041044600680169E26821F44051A1
:101CF000114301612169A068E269084361691143E8
:101D000008432168CA6849F20C639A430243CA60D7
:101D100020684169A26921F4407111434161E06981
:101D2000192764253226B0F5004F354A3549206819
:101D30004FF0000806D0884201D0904236D1FFF71C
:101D400013F835E0884201D0904202D1FFF70CF839
:101D500001E0FEF7F9FF61684A18A0FB070148EBB4
:101D60000803FEF73FFA0146B0FBF5F00201B1FBB4
:101D7000F5F06FF01803584301EB800006EBC0004C
:101D8000B0FBF5F000F0F80002EB4002B1FBF5F01B
:101D9000584301EB800006EBC000B0FBF5F000F00B
:101DA0000700216810448860BDE8F081FEF7CCFF91
:101DB00061688B0F8A00A0FB0701FEF713FA01464A
:101DC000B0FBF5F06FF01802504301EB800006EB1A
:101DD0000010B0FBF5F000F0F002B1FBF5F002EB03
:101DE0000012B1FBF5F06FF01803584301EB8000CF
:101DF00006EB0010B0FBF5F000F00F00D1E700009B
:101E000000140140001001402DE9F04198461746AA
:101E10000E460446069D1DE0681C1BD02DB1FEF742
:101E20001FFEA0EB0800A84214D92068C16821F465
:101E3000D071C1602068416921F001014161202019
:101E400084F8390084F83A00002084F83800032030
:101E5000BDE8F0812068006836EA000004D0002068
:101E6000B842D9D00020F3E70120F9E7FEE70000EF
:101E70000FB4084B10B504A902AA039800F02CF87F
:101E8000044602A9002000F0D1F8204610BC5DF8FD
:101E900014FB00002D2000080907090E002804DBB0
:101EA00000F1E02080F80014704700F00F0000F10E
:101EB000E02080F8141D704702E008C8121F08C116
:101EC000002AFAD170477047002001E001C1121FBB
:101ED000002AFBD1704700002DE9FF4F89B09B46D7
:101EE0000446002506E025280BD05A460B9990475A
:101EF000641C6D1C20780028F5D10DB02846BDE883
:101F0000F08F0027B8460122474900E0074314F844
:101F1000013F203B02FA03F00842F7D120782E2837
:101F200019D114F8010F47F004072A280ED06FF0DA
:101F30002F022078A0F1300109290CD808EB880184
:101F400002EB410100EB0108641CF2E70A98641CF3
:101F500050F8048B0A9020780028CED0642808D04E
:101F6000692806D075281ED05A460B9990476D1CDB
:101F700058E00A994FF00A0901C90A91002802DACB
:101F800040422D2102E0390504D52B218DF8201087
:101F9000012103E0F90704D02021F7E78A4608AEC3
:101FA0000DE00021FAE70A994FF00A0901C90A91E8
:101FB000F7E74946FEF760F9303106F8011D0028C1
:101FC000F7D1ADEB060000F12009780701D44FF0FE
:101FD0000108C84502DDA8EB090000E000208046AA
:101FE000002706E008A85A46C05D0B9990476D1C73
:101FF0007F1C5745F6DB04E030205A460B9990478A
:102000006D1CB8F10001A8F10108F5DC05E016F837
:10201000010B5A460B9990476D1CB9F10001A9F1CB
:102020000109F4DC641C65E7092801000A68531CF7
:102030000B60107070470000FEF720FDFFF7FEFCFC
:10204000FFF764FCFFF738FC1F481E490C220160B3
:102050004FF4E131416000218160C160C0E90412A8
:102060008161C161FFF732FBFFF7F6FBFFF77CFCF4
:10207000FFF7B6FC154D4FF47A741348C838FEF7D5
:1020800059FB21461248FEF703FB1148FEF784FA7C
:1020900028600F48FEF7C4FB0B480EA140302A68A9
:1020A000FFF7E6FE08484030FEF7DFF8064982B247
:1020B000642340310448FFF771FB2046FEF7CEFB56
:1020C000DBE7000000100140340100200C0000207C
:1020D00024000020566F6C746167652049523120DE
:1020E0003D2025750D0A00000000000000000000E2
:1020F00001020304060708090000000001020304AE
:10210000202100080000002024000000B81E000864
:102110004421000824000020F4050000C81E000827
:1021200000000000000000000000000000000000AF
:10213000000000000100000010000000000000008E
:042140000024F40083
:04000005080001AD41
:00000001FF
