:020000040800F2
:1000000090050020C10100085B1700085316000886
:10001000591700084D040008C91A00080000000024
:100020000000000000000000000000005F17000852
:100030004F040008000000005D1700086117000869
:10004000DB010008DB010008DB010008DB01000820
:10005000DB010008DB010008DB010008DB01000810
:10006000DB010008DB010008DB010008DB01000800
:10007000DB010008DB010008DB010008DB010008F0
:10008000DB010008DB01000809030008DB010008B0
:10009000DB010008DB010008DB010008DB010008D0
:1000A000DB010008DB010008DB010008DB010008C0
:1000B000DB010008DB010008DB010008DB010008B0
:1000C000DB010008DB010008DB010008DB010008A0
:1000D000DB010008DB010008DB010008DB01000890
:1000E000DB010008DB010008DB010008DB01000880
:1000F000DB010008DB010008DB010008DB01000870
:10010000DB010008DB010008DB010008DB0100085F
:10011000DB010008DB010008DB010008DB0100084F
:10012000DB010008DB010008DB010008DB0100083F
:10013000DB010008DB010008DB010008DB0100082F
:10014000DB010008DB010008DB010008DB0100081F
:10015000DB010008DB010008DB010008DB0100080F
:10016000DB010008DB010008DB010008DB010008FF
:10017000DB010008DB010008DB010008DB010008EF
:10018000DB010008DB010008DB010008DB010008DF
:10019000DB010008DB010008DB010008DB010008CF
:1001A000DB010008DB010008DB010008DFF80CD0F0
:1001B00000F098F800480047951C000890050020C2
:1001C0000648804706480047FEE7FEE7FEE7FEE7F1
:1001D000FEE7FEE7FEE7FEE7FEE7FEE7ED170008B5
:1001E000AD0100082DE9F05F0546002092469B46D0
:1001F00088460646814640241BE02846414647463D
:10020000224600F05EF853465A46C01A914110D378
:1002100011461846224600F045F82D1A67EB0108F2
:100220004F4622460120002100F03CF817EB000960
:100230004E41201EA4F10104DFDC484631462A4627
:100240004346BDE8F09FD2B201E000F8012B491E01
:10025000FBD270470022F6E710B513460A46044663
:100260001946FFF7F0FF204610BD421C10F8011B95
:100270000029FBD1801A704730B50B46014600209B
:100280002022012409E021FA02F59D4205D303FA58
:1002900002F5491B04FA02F52844151EA2F10102D9
:1002A000F1DC30BD202A04DB203A00FA02F1002004
:1002B00070479140C2F1200320FA03F319439040A4
:1002C0007047202A04DB203A21FA02F0002170470F
:1002D00021FA02F3D040C2F12002914008431946AE
:1002E00070470000064C074D06E0E06840F001034F
:1002F00094E8070098471034AC42F6D3FFF75AFF52
:10030000641D0008841D000810B5044800F066F95B
:10031000BDE81040024800F061B90000180000205C
:1003200060000020464910B54A6822F440324A6015
:100330004A6843681A434A6001684A6822F4807236
:100340004A6001684A68036942EA03224A60016818
:100350004A6822F040724A6001684A6883681A431A
:100360004A6001688A6822F400628A6001688A68CB
:10037000C3681A438A60816A6FF07062D142016873
:100380008A6822F070628A6001688A680CD0836A89
:100390001A438A6001688A6822F040528A600168C4
:1003A0008A68C36A1A4301E022F040528A600168F9
:1003B0008A6822F002028A6001688A68037E42EA43
:1003C00043028A6090F82010002901684A680FD023
:1003D00042F400624A6001684A6822F460424A605E
:1003E00001684A68174C436A04EB43331A4301E03F
:1003F00022F400624A600168CA6A22F47002CA628A
:100400000168CA6A838B104C04EB03531A43CA6217
:1004100001688A6822F400728A6001688A6890F82C
:10042000303042EA43228A6001688A6822F480629E
:100430008A6001688A68406942EA8020886010BD4D
:100440000023014000E0FFFF0000F0FFFEE77047DF
:100450007047000078B50024009490F83C20012AF1
:1004600019D0012280F83C200A6807230568092A70
:1004700013D9EE680A3A02EB420293409E43EE60C3
:100480000B788A680A3B03EB43039A400368DD68F4
:100490002A43DA6010E0022078BD2E6902EB4202A6
:1004A00093409E432E610B788A6803EB43039A4086
:1004B00003681D692A431A614A681F23072A13D259
:1004C00005686E6B521E02EB820293409E436E6380
:1004D0000A8893B20A79521E02EB820293400268A4
:1004E000556B2B43536327E005680D2A12D22E6B00
:1004F000D21F02EB820293409E432E630B790A883F
:10050000DB1F92B203EB83039A4003681D6B2A43FF
:100510001A6311E0EE6A0D3A02EB820293409E43A9
:10052000EE620B790A880D3B92B203EB83039A408B
:100530000368DD6A2A43DA621B4B0568194A9D424B
:100540000AD10D68122D07D1556825F400055560B4
:10055000556845F48005556005689D421DD1134DD1
:100560000B68AB4201D0112B17D1536823F48003E1
:100570005360536843F4000353600968A9420CD1E7
:100580000B490C4A0968B1FBF2F101EB810149000A
:1005900000E0491E00910029FBD180F83C4000207A
:1005A00078BD00000023014000200140120000102F
:1005B0001400002040420F0010B5044800F00BF872
:1005C000034948600120087010BD00001800002099
:1005D0000000002070470068C06C704770B504468A
:1005E000006801684268C1F34001C2F3401251B390
:1005F0004AB3216CC90603D4216C41F40071216413
:10060000816811F0405F17D1217EA9B9C16A11F448
:10061000700F02D0816849050ED4416821F0200195
:100620004160206C20F480702064206CC00403D4EE
:10063000206C40F0010020642046FFF7BDFF2168D8
:100640006FF012000860206801684268C1F3800101
:10065000C2F3C01289B382B3216CC90603D4216CE2
:1006600041F400512164816811F4401F1ED1816B57
:1006700011F4401F02D08168490517D4416849052B
:1006800014D4816811F0405F10D1217E71B94168A6
:1006900021F080014160206C20F480502064206CA7
:1006A000C00503D4206C40F0010020642046FFF711
:1006B000CFFE21686FF00C00086020680168426876
:1006C00011F0010FC2F380120ED06AB10068C007AA
:1006D0000AD0206C40F480302064204600F046F8B8
:1006E00021686FF001000860206801684268C1F36A
:1006F0004011C2F3806200290DD0002A0BD0616C3A
:1007000041F0020161646FF0200505602046FFF7AB
:1007100061FF2068056070BD70B504004FF00005F2
:1007200003D0206C002610B107E0012070BD2046E8
:1007300000F01EF8666484F83C60206CC00610D49B
:10074000206C20F4885040F0020020642046FFF71F
:10075000E9FD6664206C20F0020040F00100206496
:1007600000E0012584F83C60284670BD7047000019
:1007700030B587B0044614216846FFF76BFD234867
:100780002468214D0022214914380323AC4216D19C
:100790000C6844F480740C60096801F48071059160
:1007A000016841F0010101600068694600F0010044
:1007B00005900620CDE900030292154818E0154D7A
:1007C000AC421FD10C6844F480640C60096801F4E9
:1007D00080610591016841F020010160006869466F
:1007E00000F0200005904020CDE9000302920A4865
:1007F00000F018F900221146122000F06BFA1220C6
:1008000000F05AFA07B030BD0020014044380240E1
:1008100000000240002201400014024018B50021EF
:10082000009190F83C20012A07D0012280F83C205A
:1008300002689368DB0702D011E0022018BD9368BC
:1008400043F0010393602A4A2A4B1268B2FBF3F289
:1008500002EB420200E0521E0092002AFBD1026825
:100860009368DB0741D0036C40F20164A34343F477
:100870008073036453685B0505D5036C23F4005350
:1008800043F480530364036CDB0404D5436C23F00E
:100890000603436400E0416480F83C1016496FF0A1
:1008A0002203136049680068CA06144906D08842CA
:1008B0001BD1816811F0405F13D016E08842F8D058
:1008C0000F4A904203D1D1F80423D206F1D00D4A49
:1008D00090420AD1D1F8041301F01F011029E8D386
:1008E00003E0816841F080418160002018BD000074
:1008F0001400002040420F0000230140002001406E
:10090000002101400022014018B50021009190F81B
:100910003C20012A07D0012280F83C20026893681D
:10092000DB0702D011E0022018BD936843F00103F9
:1009300093602C4A2C4B1268B2FBF3F202EB42029A
:1009400000E0521E0092002AFBD102689368DB0788
:1009500046D0036C40F20164A34343F48073036404
:1009600053685B0505D5036C23F4005343F48053AF
:100970000364036CDB0404D5436C23F00603436477
:1009800000E0416480F83C10184B6FF022011160C8
:1009900001684A68164C22434A6059680068CA06D2
:1009A000144906D088421BD1816811F0405F13D0F2
:1009B00016E08842F8D0104A904203D1D1F80423BF
:1009C000D206F1D00D4A90420AD1D1F8041301F0B9
:1009D0001F011029E8D303E0816841F08041816064
:1009E000002018BD1400002040420F0000230140E9
:1009F00020000004002001400021014000220140AD
:100A000070B5044600F0F8F80546601C02D00448B2
:100A10000078044400F0F0F8401BA042FAD370BD07
:100A2000080000202DE9F84F00224FF001080325AF
:100A30004FF00F0E0B6808FA02F42340A3426ED168
:100A40004E68012E05D0022E03D0112E01D0122E99
:100A500012D186684FEA420C05FA0CF7BE43CF6804
:100A600007FA0CF7374387604668A6430C79C4F34E
:100A70000014944034434460C668570005FA07FCEC
:100A80008C6826EA0C06BC403443C4604C68022CD7
:100A900001D0122C13D1D40800EB8404A346D4F85F
:100AA000209054074FEAD46A0EFA0AF629EA06099A
:100AB0000E6906FA0AF646EA0906CBF820600468D1
:100AC0000E7924EA0C0406F00306BE4026430660B5
:100AD0004C68E4006FD53B4C266846F4804626609F
:100AE000246822F0030604F480440094364C344415
:100AF000A446D4F808489607360F0EFA06F7BC430A
:100B0000324FB84201D100272EE0314FB84201D117
:100B1000012729E02F4FB84202D1022724E04AE002
:100B20002D4FB84201D103271EE02C4FB84201D10E
:100B3000042719E02A4FB84201D1052714E0294FB4
:100B4000B84201D106270FE0274FB84201D107274D
:100B50000AE0264FB84201D1082705E0244FB842E9
:100B600001D1092700E00A27B7402743CCF80878CD
:100B7000204E34684F689C43FF0300D51C4334600B
:100B80001C4E361D34684F689C43BF0300D51C4380
:100B90003460184E083634684F689C43FF0200D515
:100BA0001C433460134E0C3634684F689C43BF02BC
:100BB00000D51C433460521C102AFFF43BAFBDE843
:100BC000F88F00004438024000300140000002402D
:100BD0000004024000080240000C024000100240E5
:100BE0000014024000180240001C02400020024095
:100BF00000240240003C014001488068704700002A
:100C00000800002002488168027811448160704722
:100C1000080000200B4810B5016841F40071016024
:100C2000016841F480610160016841F480710160F4
:100C3000032000F06FF8002000F006F800F024F820
:100C4000002010BD003C024070B50D4D04464FF42D
:100C50007A712878B1FBF0F00A490968B1FBF0F02D
:100C600000F03CFB48B9102C07D200222146501E50
:100C700000F030F800206C6070BD012070BD0000F5
:100C800008000020140000200A4808B5016841F45B
:100C900080410160006800F4804000900548001F1A
:100CA000016841F080510160006800F080500090C0
:100CB00008BD000044380240002809DB00F01F0294
:100CC000012191404009800000F1E020C0F80011AE
:100CD00070470000F0B40E4B1B680C46C3F30223B0
:100CE000C3F10705042D00D90425191D072901D2D8
:100CF000002300E0DB1E012606FA05F1491E214013
:100D000099409E40761E16403143F0BC00F0F2BE82
:100D10000CED00E0064900F0070208684FF6FF03FB
:100D2000184040EA0220034A104308607047000060
:100D30000CED00E00000FA052DE9F84317480168C2
:100D400041F0805101600068154F00F0805001268D
:100D500000903E64FFF750FF05464FF47A78114C3F
:100D600005E000BFFFF748FF401B40450DD8606815
:100D7000C003F7D57E64FFF73FFF0546464607E010
:100D8000FFF73AFF401BB04202D90320BDE8F883C9
:100D900060688003F4D50020F8E700004038024086
:100DA00000000E42007000402DE9F0470E4605009D
:100DB00065D0DFF81481D8F80000F7B200F00F001A
:100DC000B04207D288F80070D8F8000000F00F0099
:100DD000B04254D128683D4C810712D5400703D555
:100DE000206840F4E05020602878000703D5206890
:100DF00040F4604020602068A96820F0F0000843BB
:100E000020602878C0072DD030496868083901284B
:100E100012D0022813D0032811D0096889070029AD
:100E20002DDA216821F0030101432160FFF7E4FE80
:100E3000814641F2883A0EE009688903EFE70968C4
:100E40008901ECE7FFF7D8FEA0EB0901514502D973
:100E50000320BDE8F0872068696800F00C00B0EB63
:100E6000810FEFD1D8F80010404601F00F01B142D8
:100E700007D90770006800F00F00B04201D00120D0
:100E8000E7E72878400705D52068E96820F4E050B6
:100E9000084320602878000706D52068296920F4D7
:100EA000604040EAC100206000F038F82168084A3C
:100EB000C1F30311515CC840064908600648006848
:100EC000FFF7C2FE0020C4E7003C024008380240A1
:100ED0004C1D0008140000200C00002004480549A7
:100EE00000680968044AC1F38221515CC840704718
:100EF00014000020083802405C1D00080448054921
:100F000000680968044AC1F34231515CC840704727
:100F100014000020083802405C1D0008154810B578
:100F2000006810F00C02144813D01449042A0FD0A2
:100F3000082A0ED10F4C241F2268236802F03F02BA
:100F40005B0207D52068C0F38810A0FB010106E012
:100F5000084610BD2168C1F38811A1FB00010023E0
:100F6000FFF740F92168C1F30141491C4900B0FB7A
:100F7000F1F010BD083802400024F40040787D01F3
:100F80002DE9F84F040076D02078DFF838A3CE4D55
:100F9000C00749D0DAF800105046C1F38101012999
:100FA00008D00068C0F3810002280AD1281D00681B
:100FB000400206D52868800336D560680028E2D054
:100FC00032E06068B0F5803F10D0B0F5A02F2868FF
:100FD00010D020F480302860286820F48020286019
:100FE0006068A0B1FFF708FE06460CE0286840F4F0
:100FF0008030F4E740F480202860F7E7FFF7FCFD3D
:10100000801B642873D828688003F7D50CE0FFF7AD
:10101000F3FD064605E000BFFFF7EEFD801B6428E8
:10102000F0D828688003F7D42078DFF8A082800702
:101030004FF000093ED5DAF80010504611F00C0FC1
:1010400009D00068C0F3810002280BD19D48001F21
:101050000068400206D42868800715D5E06801289A
:1010600009D111E0E068B8B10120C8F80000FFF72D
:10107000C3FD064605E020E1FFF7BEFD801B022808
:10108000C0D828688007F7D52868216920F0F800C3
:1010900040EAC10028600DE0C8F80090FFF7ACFD01
:1010A000064604E0FFF7A8FD801B02281FD8286829
:1010B0008007F7D42078000722D5824E84486169E2
:1010C0006C3671B101210160FFF796FD074604E01F
:1010D000FFF792FDC01B022809D830688007F7D5BA
:1010E0000EE0C0F80090FFF787FD074605E082E0BC
:1010F000FFF782FDC01B02287DD830688007F7D437
:101100002078400768D5DFF8BCB100270BF1380B19
:10111000DBF80000C0000BD4DBF8001041F0805178
:10112000CBF80010DBF80000012700F080500090A1
:10113000684E3068C00510D4306840F4807030606C
:10114000FFF75AFD009005E0FFF756FD0099401AA1
:10115000022850D83068C005F6D55A4EA0686836C7
:1011600001280FD00528306810D020F00100306031
:10117000306820F004003060A068B8B1FFF73CFD93
:1011800000900FE0306840F00100F4E740F0040008
:101190003060F7E7FFF730FD0099411A41F28830DF
:1011A000814266D830688007F4D50EE0FFF724FD51
:1011B000009007E0FFF720FD0099411A41F28830C6
:1011C000814256D830688007F4D42FB1DBF8001084
:1011D00021F08051CBF80010A069D0B3DAF80020DC
:1011E0005146C2F38102022A4AD00228484607D05B
:1011F000C8F8600000E03CE0FFF7FEFC04463BE07E
:101200004746C8F86000FFF7F7FC064605E000BF58
:10121000FFF7F2FC801B02282BD828688001F7D446
:10122000D4E907010843A16A2B4A490802EB0141AE
:10123000626A41EA8211084394F82C1040EA016185
:101240002048001F016001203866FFF7D5FC0446E6
:1012500005E034E0FFF7D0FC001B022809D828681D
:101260008001F7D52BE000BFFFF7C6FC001B02286A
:1012700002D90320BDE8F88F28688001F4D41EE06D
:101280000128F7D00868E26900F48001914214D186
:10129000226A00F03F0191420FD147F6C071626AA5
:1012A0000140914209D1A26A00F44031914204D137
:1012B000E16A00F07060884201D00120DAE7002086
:1012C000D8E70000083802400038024000004742DA
:1012D000800E4742007000400000FFFF10B5401E26
:1012E000B0F1807F01D3012010BD4FF0E024606198
:1012F0000F21601700F0FEFB0020A0610720206195
:10130000002010BD70B590F83C20012A32D0012495
:1013100080F83C40022280F83D2003685A689D68AE
:1013200022F070060A6832435A60134B02689A42F0
:1013300014D0B2F1804F11D0104B9A420ED0104B06
:101340009A420BD00F4B9A4208D00F4B9A4205D0CD
:101350000E4B9A4202D00E4B9A4204D1496825F0B6
:1013600080031943916080F83D40002180F83C10D3
:10137000084670BD022070BD00000140000400401E
:1013800000080040000C0040000401400040014003
:101390000018004010B5040003D094F83D0010B1CF
:1013A00007E0012010BD002084F83C00204600F03A
:1013B0000DF8022084F83D00211D206800F024FA79
:1013C000012084F83D00002010BD000008B5006831
:1013D0000649884208D10648016841F004010160CD
:1013E000006800F00400009008BD00000008004004
:1013F0004038024070B5044690F83C00012817D0F0
:10140000012584F83C50022084F83D002068826861
:1014100022F0770222F47F4282600868502830D0A0
:101420000DDC20284DD005DC98B310283BD148E0D6
:10143000022070BD302844D0402834D139E06028E3
:1014400028D0702806D0B0F5805F2CD0B0F5005FB2
:1014500029D10AE0CB68D1E90121206800F038FAEF
:101460002068816841F0770109E0CB68D1E901216A
:10147000206800F02DFA2068816841F48041816085
:1014800011E0CA684968206800F034FA50212068E9
:1014900007E016E0CA684968206800F03CFA60215D
:1014A000206800F01FFA84F83D50002084F83C00CA
:1014B00070BDCA684968206800F01CFA40212068A5
:1014C000EFE7226801461046EBE770B5040004D050
:1014D00094F83900002510B106E0012070BD84F8B1
:1014E0003850204600F022F8242084F83900206883
:1014F000C16821F40051C160204600F01FFA206845
:10150000016921F4904101612068416921F02A01BB
:1015100041612068C16841F40051C160E563202049
:1015200084F8390084F83A00002070BD10B586B008
:10153000044614216846FEF78DFE1449206888424F
:1015400021D11348016841F010010160006800F0EA
:10155000100005900E481438016841F00101016047
:101560000068694600F0010005904FF4C0600090EB
:101570000220019001200290032003900720049094
:101580000448FFF74FFA06B010BD000000100140FC
:1015900044380240000002402DE9F843044690F828
:1015A00039001F4616460D46202850D1B5B1AEB1C0
:1015B00094F8380001284AD0012084F838004FF010
:1015C0000008C4F83C80212084F83900FFF714FBA0
:1015D000A6848146E68484F8388026E00120BDE8B0
:1015E000F883E08C401EE084A0684B46B0F5805F35
:1015F0004FF000024FF080012046009703D000F02A
:1016000031FAE8B90DE000F02DFAC8B92888216850
:10161000C0F308004860206908B16D1C05E0AD1CEE
:1016200003E0216815F8010B4860E08C0028D8D150
:101630004B46002240212046009700F013FA08B1E3
:101640000320CCE7202084F839000020C7E70220DF
:10165000C5E7FEE77FB50024144800940194029486
:1016600011490394C0E900140125056184600576E1
:1016700080F820400E49C0E90A140226C661C46001
:1016800080F830404561FFF747F80095CDE90154F7
:1016900069460648FEF7DEFE009669460348019655
:1016A000FEF7D8FE7FBD000000200140180000209A
:1016B0000100000F7FB500241148009401940294AA
:1016C0000E490394C0E90014846001250461057685
:1016D00080F820400B49C0E90A14C561C46080F855
:1016E00030404561FFF718F80420CDE90005694650
:1016F00002940348FEF7AEFE7FBD000000220140C9
:10170000600000200100000F10B586B000241148D1
:10171000009401940294039404940D49059401608B
:101720005921C0E90114C46004618461FFF732FEED
:101730004FF48050009069460648FFF75BFE049422
:1017400004A904480594FFF7DDFD06B010BD0000B4
:1017500000080040A8000020FEE77047704770476F
:10176000FFF750BA30B593B030216846FEF772FDEE
:1017700014210CA8FEF76EFD1A480025016841F0FF
:1017800080510160006800F0805011901648016897
:1017900021F4404141F4804101600068022400F4DA
:1017A0004040119001200390102000940694049072
:1017B000CDE90750B420CDE9090404200B90684618
:1017C000FFF7DEFBFFF7B8FA0CA90F2081E8310024
:1017D000E0020F90109002210CA8FFF7E5FA13B079
:1017E00030BD0000403802400070004005480168EC
:1017F00041F47001016003494FF0006080390860D6
:101800007047000088ED00E0F0B50268254C264DD9
:10181000264E274F274B4FF0804CA04209D0604501
:1018200007D0A84205D0B04203D0B84201D09842B8
:1018300004D122F0700E4A6842EA0E02A0421BD088
:10184000604519D0A84217D0B04215D0B84213D085
:10185000984211D0184DA8420ED0184DA8420BD076
:10186000174DA84208D0174DA84205D0164DA842E2
:1018700002D0164DA84203D122F44075CA682A430B
:101880004D6922F080022A4302608A68C2620A68B7
:101890008262A04201D0984201D10969016301210D
:1018A0004161F0BD0000014000040040000800401C
:1018B000000C004000040140004001400044014091
:1018C0000048014000180040001C0040002000407B
:1018D00010B5846842EA032224F47F440A43224379
:1018E000826010BD826822F070020A4342F0070154
:1018F0008160704710B5036A046A24F00104046231
:10190000846924F0F00444EA021423F00A020A4332
:101910008461026210BD10B5036A23F010030362F4
:101920008369046A23F4704343EA023224F0A0037B
:1019300043EA01118261016210BD00002DE9F0410E
:10194000044600680169E26821F4405111430161D5
:101950002169A068E269084361691143084321686D
:10196000CA6849F20C639A430243CA60206841691D
:10197000A26921F4407111434161E069192764258E
:101980003226B0F5004F354A354920684FF000083F
:1019900006D0884201D0904236D1FFF7AFFA35E049
:1019A000884201D0904202D1FFF7A8FA01E0FFF788
:1019B00095FA61684A18A0FB070148EB0803FEF797
:1019C00011FC0146B0FBF5F00201B1FBF5F06FF040
:1019D0001803584301EB800006EBC000B0FBF5F0A4
:1019E00000F0F80002EB4002B1FBF5F0584301EBC8
:1019F000800006EBC000B0FBF5F000F007002168A6
:101A000010448860BDE8F081FFF768FA61688B0FC9
:101A10008A00A0FB0701FEF7E5FB0146B0FBF5F0ED
:101A20006FF01802504301EB800006EB0010B0FB92
:101A3000F5F000F0F002B1FBF5F002EB0012B1FBA3
:101A4000F5F06FF01803584301EB800006EB00102F
:101A5000B0FBF5F000F00F00D1E7000000140140EA
:101A6000001001402DE9F041984617460E46044605
:101A7000069D1DE0681C1BD02DB1FFF7BDF8A0EB43
:101A80000800A84214D92068C16821F4D071C1604F
:101A90002068416921F001014161202084F839006A
:101AA00084F83A00002084F838000320BDE8F08173
:101AB0002068006836EA000004D00020B842D9D07F
:101AC0000020F3E70120F9E7FEE700000FB4084B20
:101AD00010B504A902AA039800F02CF8044602A944
:101AE000002000F0D1F8204610BC5DF814FB000087
:101AF000891C00080907090E002804DB00F1E0201A
:101B000080F80014704700F00F0000F1E02080F82A
:101B1000141D704702E008C8121F08C1002AFAD13C
:101B200070477047002001E001C1121F002AFBD15D
:101B3000704700002DE9FF4F89B09B460446002501
:101B400006E025280BD05A460B999047641C6D1C63
:101B500020780028F5D10DB02846BDE8F08F002789
:101B6000B8460122474900E0074314F8013F203BF3
:101B700002FA03F00842F7D120782E2819D114F880
:101B8000010F47F004072A280ED06FF02F022078AB
:101B9000A0F1300109290CD808EB880102EB4101C2
:101BA00000EB0108641CF2E70A98641C50F8048BEF
:101BB0000A9020780028CED0642808D0692806D062
:101BC00075281ED05A460B9990476D1C58E00A990B
:101BD0004FF00A0901C90A91002802DA40422D217A
:101BE00002E0390504D52B218DF82010012103E0F6
:101BF000F90704D02021F7E78A4608AE0DE000215E
:101C0000FAE70A994FF00A0901C90A91F7E749462C
:101C1000FEF732FB303106F8011D0028F7D1ADEB9D
:101C2000060000F12009780701D44FF00108C845EB
:101C300002DDA8EB090000E000208046002706E056
:101C400008A85A46C05D0B9990476D1C7F1C5745EC
:101C5000F6DB04E030205A460B9990476D1CB8F132
:101C60000001A8F10108F5DC05E016F8010B5A4661
:101C70000B9990476D1CB9F10001A9F10109F4DC41
:101C8000641C65E7092801000A68531C0B6010708A
:101C90007047000008B5FEF7BDFFFFF763FD23485E
:101CA0000024016841F020010160016801F0200179
:101CB0000091016841F001010160006800F001003D
:101CC0000090FFF7C7FC1B48194901604FF4E13150
:101CD000C0E901140C21C460C0E904418461C461FD
:101CE000FFF7F3FBFFF710FDFFF7E4FC1148D038D6
:101CF000FEF794FD104C4FF47A750E488838FEF7C5
:101D000003FE0C480DA140306268FFF7DFFE094872
:101D10004030FEF7AAFA074982B2642340310548F1
:101D2000FFF73AFC2846FEF76BFEE6E73038024044
:101D300000100140E800002000000020566F6C7485
:101D400061676520203D2025750D0A000000000018
:101D5000000000000102030406070809000000005B
:101D600001020304841D0008000000201800000088
:101D7000141B00089C1D00081800002078050000B6
:101D8000241B00080000000000000000010000000B
:0C1D900010000000000000000024F4001F
:04000005080001AD41
:00000001FF
