:020000040800F2
:10000000B8040020C1010008971600089B120008E0
:100010009516000819030008BD180008000000002C
:100020000000000000000000000000009B16000817
:100030001B03000800000000991600089D16000828
:10004000DB010008DB010008DB010008DB01000820
:10005000DB010008DB010008DB010008DB01000810
:10006000DB010008DB010008DB010008DB01000800
:10007000DB010008DB010008DB010008DB010008F0
:10008000DB010008DB010008DB010008DB010008E0
:10009000DB010008DB010008DB010008DB010008D0
:1000A000DB010008DB010008DB010008DB010008C0
:1000B000DB010008DB010008DB010008DB010008B0
:1000C000DB010008DB010008DB010008DB010008A0
:1000D000DB010008DB010008DB010008DB01000890
:1000E000DB010008DB010008DB010008DB01000880
:1000F000DB010008DB010008DB010008DB01000870
:10010000DB010008DB010008DB010008DB0100085F
:10011000DB010008DB010008DB010008DB0100084F
:10012000DB010008DB010008DB010008DB0100083F
:10013000DB010008DB010008DB010008DB0100082F
:10014000DB010008DB010008DB010008DB0100081F
:10015000DB010008DB010008DB010008DB0100080F
:10016000DB010008DB010008DB010008DB010008FF
:10017000DB010008DB010008DB01000800000000D3
:10018000DB010008DB010008DB010008DB010008DF
:10019000DB010008DB010008DB010008DB010008CF
:1001A000DB010008DB010008DB010008DFF80CD0F0
:1001B00000F0A0F800480047891A0008B8040020A1
:1001C0000648804706480047FEE7FEE7FEE7FEE7F1
:1001D000FEE7FEE7FEE7FEE7FEE7FEE7151700088D
:1001E000AD0100082DE9F05F0546002092469B46D0
:1001F00088460646814640241BE02846414647463D
:10020000224600F067F853465A46C01A914110D36F
:1002100011461846224600F04EF82D1A67EB0108E9
:100220004F4622460120002100F045F817EB000957
:100230004E41201EA4F10104DFDC484631462A4627
:100240004346BDE8F09FD2B201E000F8012B491E01
:10025000FBD270470022F6E710B513460A46044663
:100260001946FFF7F0FF204610BD421C10F8011B95
:100270000029FBD1801A7047034611F8012B00F8C2
:10028000012B002AF9D11846704730B50B460146BC
:1002900000202022012409E021FA02F59D4205D325
:1002A00003FA02F5491B04FA02F52844151EA2F1CF
:1002B0000102F1DC30BD202A04DB203A00FA02F111
:1002C000002070479140C2F1200320FA03F3194344
:1002D00090407047202A04DB203A21FA02F00021E6
:1002E000704721FA02F3D040C2F120029140084346
:1002F00019467047064C074D06E0E06840F00103E0
:1003000094E8070098471034AC42F6D3FFF752FF49
:10031000881B0008A81B0008FEE7704770B504465C
:1003200000F0F8F80546601C02D004480078044448
:1003300000F0F0F8401BA042FAD370BD040000208A
:100340002DE9F84F00224FF0010803254FF00F0E62
:100350000B6808FA02F42340A3426ED14E68012EC6
:1003600005D0022E03D0112E01D0122E12D1866894
:100370004FEA420C05FA0CF7BE43CF6807FA0CF7B8
:10038000374387604668A6430C79C4F30014944051
:1003900034434460C668570005FA07FC8C6826EAB7
:1003A0000C06BC403443C4604C68022C01D0122CB3
:1003B00013D1D40800EB8404A346D4F8209054074A
:1003C0004FEAD46A0EFA0AF629EA06090E6906FA15
:1003D0000AF646EA0906CBF8206004680E7924EA9A
:1003E0000C0406F00306BE40264306604C68E40099
:1003F0006FD53B4C266846F480462660246822F080
:10040000030604F480440094364C3444A446D4F8E3
:1004100008489607360F0EFA06F7BC43324FB8422B
:1004200001D100272EE0314FB84201D1012729E048
:100430002F4FB84202D1022724E04AE02D4FB842A4
:1004400001D103271EE02C4FB84201D1042719E047
:100450002A4FB84201D1052714E0294FB84201D1F3
:1004600006270FE0274FB84201D107270AE0264FA1
:10047000B84201D1082705E0244FB84201D109272D
:1004800000E00A27B7402743CCF80878204E3468AC
:100490004F689C43FF0300D51C4334601C4E361D3F
:1004A00034684F689C43BF0300D51C433460184E2A
:1004B000083634684F689C43FF0200D51C43346003
:1004C000134E0C3634684F689C43BF0200D51C4362
:1004D0003460521C102AFFF43BAFBDE8F88F0000D7
:1004E0004438024000300140000002400004024055
:1004F00000080240000C02400010024000140240BC
:1005000000180240001C024000200240002402406B
:10051000003C014001488068704700000400002052
:1005200090F83D20202A01D002207047242280F834
:100530003D200268136823F0010313600268536AC8
:1005400023F0100353620268536A0B43536201683D
:100550000A6842F001020A60202180F83D10002064
:10056000704790F83D20202A01D0022070472422B5
:1005700080F83D200268136823F0010313600368CC
:100580005A6A22F00F020A4391B2596201680A685E
:1005900042F001020A60202180F83D1000207047DF
:1005A00070B5040025D094F83D00002520B984F8EA
:1005B0003C50204600F03EFA242084F83D0020689C
:1005C000016821F0010101602068016841F40041E7
:1005D00001602068016821F40041016000F084FBA3
:1005E0004D4A6168914201D84C4900E04C4988422B
:1005F00001D2012070BD4B492368B0FBF1F15E6868
:1006000026F03F060E435E606368934206D94FF4BE
:10061000967359434FF47A73B1FBF3F12368491C85
:100620001E6A26F03F06314319626168914210D874
:100630004900401EB0FBF1F2521CC2F30B02042A27
:1006400001D2042022E0B0FBF1F0401CC0F30B000B
:100650001CE0A268F2B301EBC10303EB0116431ED9
:10066000B3FBF6F35B1C43F480431B0549D092B304
:1006700001EBC10202EB0111401EB0FBF1F0401C86
:10068000C0F30B0040F4804040F400402168CA6988
:100690004CF6FF739A431043C861D4E90710014335
:1006A0002068026822F0C00211430160D4E903010E
:1006B00001432068826848F2FF339A431143816006
:1006C000D4E9050108432168CA6822F0FF021043FB
:1006D000C86001E00EE016E02068016841F0010109
:1006E00001602564202084F83D00256384F83E5095
:1006F000002070BD01EB4106431EB3FBF6F35B1C0B
:10070000B3E70120C2E701EB4101401EB0FBF1F06D
:10071000401CC0F30B00B7E7A086010080841E00D8
:1007200000093D0040420F002DE9F84F1F4690465A
:100730008A460446DDF82890FFF7ECFE054694F85B
:100740003D00202875D1192301226C4920460095CF
:1007500000F0A6FE0028F5D194F83C00012868D0EE
:10076000012084F83C0020680168C90703D10168B2
:1007700041F0010101602068016821F4006101601D
:10078000222084F83D00102084F83E0000262664D4
:10079000C4F824806785608D20855948E0622B4627
:1007A0004A465146204600F091FD002878D1208D20
:1007B000544F68B1012814D002282068016816D06F
:1007C00041F480610160206841698069009087E0A0
:1007D0002068416981690091016841F400710160FC
:1007E0007EE02068016821F480610160F0E721F477
:1007F000806101602068016841F40061E2E703283C
:1008000048D801280AD0022814D04B460022394685
:100810002046009500F044FED8BB27E02A46494612
:10082000204600F0BCFEA0BB20680069616A087029
:100830004DE061E04B46002239462046009500F02D
:100840002FFE30BB2068016841F400710160206810
:100850000069616A0870606A401C6062218D491EEF
:100860002185618D491E618521682EE0206801681F
:1008700021F48061016020680069616A0870606A23
:10088000401C6062208D401E2085608D401E60856A
:10089000D0E705E02A464946204600F080FE10B128
:1008A0000120BDE8F88F20680069616A0870606AFD
:1008B000401C6062218D491E2185618D491E618524
:1008C00021684A69D24352070AD409690170606AF3
:1008D000401C6062208D401E2085608D401E60851A
:1008E000208D00288BD1202084F83D0084F83E60C4
:1008F00084F83C600020D4E70220D2E70200100018
:100900000000FFFF040001002DE9F84F1F4690464C
:100910008A460446DDF82890FFF7FCFD054694F86A
:100920003D0020287FD1192301224049204600950F
:1009300000F0B6FD002876D194F83C00012872D072
:10094000012084F83C0020680168C90703D10168D0
:1009500041F0010101602068016821F4006101603B
:10096000212084F83D00102084F83E0000262664F3
:10097000C4F824806785608D20852D48E0622B4671
:100980004A465146204600F017FD90B9206841695B
:100990008069009036E02A464946204600F032FE43
:1009A00050B1206C042804D12068016841F4007122
:1009B00001600120BDE8F88F606A21680078086155
:1009C000606A401C6062618D491E6185218D491EEF
:1009D00089B2218522685369DB435B070BD451B18F
:1009E00000781061606A401C6062608D401E608506
:1009F000208D401E20852A464946204600F02AFDCB
:100A00000028CED1208D0028C5D154F83D0B0168B7
:100A100041F400710160202004F81E09E677667732
:100A20000020C7E7FFE70220C4E700000200100033
:100A30000000FFFF10B586B0044614216846FFF79A
:100A400009FC13492068884220D11248016841F00E
:100A5000020101600068694600F002000590C020B4
:100A600000901220019001200290032003900420A6
:100A700004900948FFF764FC06481030016841F40F
:100A800000110160006800F40010059006B010BD70
:100A9000005400403038024000040240024881689F
:100AA0000278114481607047040000200B4810B5A3
:100AB000016841F400710160016841F480610160E6
:100AC000016841F480710160032000F061F80020AA
:100AD00000F006F800F024F8002010BD003C0240B1
:100AE00070B50D4D04464FF47A712878B1FBF0F0E3
:100AF0000A490968B1FBF0F000F0F6FA48B9102C89
:100B000007D200222146501E00F022F800206C601F
:100B100070BD012070BD0000040000201000002006
:100B20000A4808B5016841F480410160006800F49A
:100B3000804000900548001F016841F0805101602D
:100B4000006800F08050009008BD0000443802406A
:100B5000F0B40E4B1B680C46C3F30223C3F1070528
:100B6000042D00D90425191D072901D2002300E016
:100B7000DB1E012606FA05F1491E214099409E40E0
:100B8000761E16403143F0BC00F0AEBE0CED00E026
:100B9000064900F0070208684FF6FF03184040EAD4
:100BA0000220034A10430860704700000CED00E08B
:100BB0000000FA052DE9F0470E46050065D0DFF884
:100BC0001481D8F80000F7B200F00F00B04207D24D
:100BD00088F80070D8F8000000F00F00B04254D13F
:100BE00028683D4C810712D5400703D5206840F4A2
:100BF000E05020602878000703D5206840F460406A
:100C000020602068A96820F0F00008432060287860
:100C1000C0072DD0304968680839012812D0022851
:100C200013D0032811D00968890700292DDA21681B
:100C300021F0030101432160FFF76CFC814641F282
:100C4000883A0EE009688903EFE709688901ECE753
:100C5000FFF760FCA0EB0901514502D90320BDE874
:100C6000F0872068696800F00C00B0EB810FEFD1CD
:100C7000D8F80010404601F00F01B14207D90770C3
:100C8000006800F00F00B04201D00120E7E72878AB
:100C9000400705D52068E96820F4E050084320604B
:100CA0002878000706D52068296920F4604040EACA
:100CB000C100206000F038F82168084AC1F3031130
:100CC000515CC8400649086006480068FFF708FF05
:100CD0000020C4E7003C024008380240701B0008B6
:100CE0001000002008000020044805490068096839
:100CF000044AC1F38221515CC840704710000020B3
:100D000008380240801B000804480549006809684B
:100D1000044AC1F34231515CC840704710000020C2
:100D200008380240801B0008154810B5006810F014
:100D30000C02144813D01449042A0FD0082A0ED1EB
:100D40000F4C241F2268236802F03F025B0207D584
:100D50002068C0F38810A0FB010106E0084610BD22
:100D60002168C1F38811A1FB00010023FFF73AFAC3
:100D70002168C1F30141491C4900B0FBF1F010BDED
:100D8000083802400024F40040787D012DE9F84F36
:100D9000040076D02078DFF838A3CE4DC00749D0C4
:100DA000DAF800105046C1F38101012908D000682B
:100DB000C0F3810002280AD1281D0068400206D530
:100DC0002868800336D560680028E2D032E0606889
:100DD000B0F5803F10D0B0F5A02F286810D020F4D7
:100DE00080302860286820F4802028606068A0B1E6
:100DF000FFF790FB06460CE0286840F48030F4E7EB
:100E000040F480202860F7E7FFF784FB801B64280C
:100E100073D828688003F7D50CE0FFF77BFB064604
:100E200005E000BFFFF776FB801B6428F0D8286838
:100E30008003F7D42078DFF8A08280074FF0000904
:100E40003ED5DAF80010504611F00C0F09D00068BA
:100E5000C0F3810002280BD19D48001F00684002AA
:100E600006D42868800715D5E068012809D111E06B
:100E7000E068B8B10120C8F80000FFF74BFB064658
:100E800005E020E1FFF746FB801B0228C0D8286858
:100E90008007F7D52868216920F0F80040EAC100F2
:100EA00028600DE0C8F80090FFF734FB064604E028
:100EB000FFF730FB801B02281FD828688007F7D473
:100EC0002078000722D5824E844861696C3671B162
:100ED00001210160FFF71EFB074604E0FFF71AFB44
:100EE000C01B022809D830688007F7D50EE0C0F88B
:100EF0000090FFF70FFB074605E082E0FFF70AFBD3
:100F0000C01B02287DD830688007F7D420784007BE
:100F100068D5DFF8BCB100270BF1380BDBF8000017
:100F2000C0000BD4DBF8001041F08051CBF800106A
:100F3000DBF80000012700F080500090684E306818
:100F4000C00510D4306840F480703060FFF7E2FADA
:100F5000009005E0FFF7DEFA0099401A022850D809
:100F60003068C005F6D55A4EA068683601280FD003
:100F70000528306810D020F001003060306820F083
:100F800004003060A068B8B1FFF7C4FA00900FE029
:100F9000306840F00100F4E740F004003060F7E70B
:100FA000FFF7B8FA0099411A41F28830814266D8B9
:100FB00030688007F4D50EE0FFF7ACFA009007E048
:100FC000FFF7A8FA0099411A41F28830814256D8B9
:100FD00030688007F4D42FB1DBF8001021F0805185
:100FE000CBF80010A069D0B3DAF800205146C2F364
:100FF0008102022A4AD00228484607D0C8F8600079
:1010000000E03CE0FFF786FA04463BE04746C8F8BC
:101010006000FFF77FFA064605E000BFFFF77AFAA7
:10102000801B02282BD828688001F7D4D4E9070157
:101030000843A16A2B4A490802EB0141626A41EA6E
:101040008211084394F82C1040EA01612048001FE7
:10105000016001203866FFF75DFA044605E034E0E0
:10106000FFF758FA001B022809D828688001F7D535
:101070002BE000BFFFF74EFA001B022802D9032025
:10108000BDE8F88F28688001F4D41EE00128F7D06D
:101090000868E26900F48001914214D1226A00F0EC
:1010A0003F0191420FD147F6C071626A01409142FF
:1010B00009D1A26A00F44031914204D1E16A00F002
:1010C0007060884201D00120DAE70020D8E70000F4
:1010D000083802400038024000004742800E474274
:1010E000007000400000FFFF10B5401EB0F1807F8F
:1010F00001D3012010BD4FF0E02460610F21601783
:1011000000F0F2FB0020A06107202061002010BD4C
:1011100070B5040004D094F83900002510B106E041
:10112000012070BD84F83850204600F023F82420B8
:1011300084F839002068C16821F40051C16020465C
:1011400000F0F6FA2068016921F4904101612068FD
:10115000416921F02A0141612068C16841F40051D0
:10116000C160E563202084F8390084F83A0000204B
:1011700070BD000010B586B0044614216846FFF724
:1011800069F814492068884221D11348016841F068
:1011900010010160006800F0100005900E4814383E
:1011A000016841F0010101600068694600F001003A
:1011B00005904FF4C0600090022001900120029041
:1011C00003200390072004900448FFF7B9F806B005
:1011D00010BD0000001001404438024000000240F1
:1011E0002DE9F843044690F839001F4616460D468F
:1011F000202850D1B5B1AEB194F8380001284AD0BA
:10120000012084F838004FF00008C4F83C80212009
:1012100084F83900FFF77EF9A6848146E68484F8D5
:10122000388026E00120BDE8F883E08C401EE08491
:10123000A0684B46B0F5805F4FF000024FF0800190
:101240002046009703D000F007FBE8B90DE000F05E
:1012500003FBC8B928882168C0F3080048602069EA
:1012600008B16D1C05E0AD1C03E0216815F8010B09
:101270004860E08C0028D8D14B460022402120460F
:10128000009700F0E9FA08B10320CCE7202084F8A9
:1012900039000020C7E70220C5E7FEE701684A6978
:1012A000D24352050FD46FF480624A61002140F8A6
:1012B000301F202242738173026942F004020261EE
:1012C0000173012070470020704700002DE9F84F9E
:1012D0000446C06A1E4693460D4621680A6842F4D9
:1012E00080620A60082807D0012805D010F5803FE9
:1012F00002D0206B112804D12068016841F480716C
:1013000001604FF001195B460022494620460096D5
:1013100000F0C6F84FF4007840B120680068C005BE
:1013200001D5C4F840800320BDE8F88F2069DFF8BC
:1013300084A0B0F5804F0FD00620216800EAD517B1
:1013400047F0F000086133465A460AF1060120468C
:1013500000F0DAF858BB03E0E8B240F001001CE00E
:101360002168E8B2086133465A465146204600F0EB
:10137000CBF8E0B92068416981690091016841F4C6
:10138000807101605B46002249462046009600F0CD
:1013900087F80028C1D147F0F10021680861334681
:1013A0005A465146204600F0AFF80028BCD0012034
:1013B000BAE7000002000100F8B50446C06A1E4604
:1013C0000D461746082807D0012805D010F5803FA4
:1013D00002D0206B122804D12068016841F480718A
:1013E0000160134600224FF001112046009600F0E4
:1013F00057F840B120680068C00502D54FF400706E
:1014000020640320F8BD2069B0F5804F0ED006207F
:10141000216800EAD51040F0F000086133463A46F2
:101420000B49204600F070F878B902E005F0FE00A4
:1014300000E0E8B221680861054933463A46891F51
:10144000204600F061F80028DCD00120F8BD000043
:101450000800010070B516460D4604460DE0204612
:10146000FFF71CFF08B1012070BD681C05D0FFF715
:1014700051F8801BA84207D835B120684069C043A5
:101480004007ECD4002070BD002044F8300F20212C
:101490006173A073216941F0200121612073E2E7AB
:1014A0002DE9F0471E4690460D460446C1F3074716
:1014B000DDF8209008E0701C06D0FFF72BF8A0EBB9
:1014C0000900B0420FD876B12068012F18D080698A
:1014D00025EA00000004000C14D000214145EAD0A8
:1014E0000020BDE8F087002044F8300F2021617310
:1014F000A073216941F02001216120730120F0E7F0
:101500004069E5E70121E9E72DE9F0479A46914670
:101510000E46044600254FF02008C1F3074725E09A
:1015200020684069C043400514D42068016841F434
:101530000071016021686FF480604861256384F860
:101540003D8084F83E50206C40F00400206484F814
:101550003C501FE0B9F1FF3F08D0FEF7DBFFA0EBE6
:101560000A0149450CD8B9F1000F09D02068012FB4
:1015700013D0806926EA00000004000C0BD0CFE7EE
:1015800044F8305F84F80D80A573206940F0200096
:10159000206125730120BDE8F0874069EAE72DE965
:1015A000F041002590460E460446202717E040698A
:1015B000C043C0060CD454F8301B6FF010004861D3
:1015C00044F810596777A577206A2062257717E0DD
:1015D000FEF7A0FFA0EB0800B04208D83EB120689B
:1015E0004169C9434906E2D40020BDE8F08144F8CE
:1015F000305F6773A573206940F020002061257378
:101600000120F2E770B516460D4604460DE020466F
:10161000FFF744FE08B1012070BD681C05D0FEF73D
:1016200079FF801BA84207D835B120684069C043C4
:101630000006ECD4002070BD002044F8300F2021BB
:101640006173A073216941F0200121612073E2E7F9
:101650000E4810B50C4901600D49416000214FF45E
:1016600080428160C0E9031241618161C161016210
:10167000FEF796FF00210548FEF752FFBDE8104037
:1016800000210248FEF76DBF005400401400002006
:10169000A0860100FEE7704770477047FFF7FEB96C
:1016A00010B592B030216846FEF7D4FD14210CA885
:1016B000FEF7D0FD15480024016841F0805101601B
:1016C000006800F0805011901148016821F44041F9
:1016D00041F4804101600068069400F4404011909C
:1016E0000220009001200390102004906846FFF72C
:1016F0004DFB0F20CDE90C040E940F9400210CA893
:101700001094FFF757FA12B010BD000040380240A5
:10171000007000400548016841F470010160034910
:101720004FF00060803908607047000088ED00E0ED
:101730002DE9F041044600680169E26821F4405156
:10174000114301612169A068E2690843616911439D
:1017500008432168CA6849F20C639A430243CA608D
:1017600020684169A26921F4407111434161E06937
:10177000192764253226B0F5004F354A35492068CF
:101780004FF0000806D0884201D0904236D1FFF7D2
:10179000BBFA35E0884201D0904202D1FFF7B4FA9B
:1017A00001E0FFF7A1FA61684A18A0FB070148EBC6
:1017B0000803FEF717FD0146B0FBF5F00201B1FB8F
:1017C000F5F06FF01803584301EB800006EBC00002
:1017D000B0FBF5F000F0F80002EB4002B1FBF5F0D1
:1017E000584301EB800006EBC000B0FBF5F000F0C1
:1017F0000700216810448860BDE8F081FFF774FAA3
:1018000061688B0F8A00A0FB0701FEF7EBFC014625
:10181000B0FBF5F06FF01802504301EB800006EBCF
:101820000010B0FBF5F000F0F002B1FBF5F002EBB8
:101830000012B1FBF5F06FF01803584301EB800084
:1018400006EB0010B0FBF5F000F00F00D1E7000050
:1018500000140140001001402DE9F0419846174660
:101860000E460446069D1DE0681C1BD02DB1FEF7F8
:1018700051FEA0EB0800A84214D92068C16821F4E9
:10188000D071C1602068416921F0010141612020CF
:1018900084F8390084F83A00002084F838000320E6
:1018A000BDE8F0812068006836EA000004D000201E
:1018B000B842D9D00020F3E70120F9E7FEE70000A5
:1018C0000FB4084B10B504A902AA039800F02CF835
:1018D000044602A9002000F0D1F8204610BC5DF8B3
:1018E00014FB00007D1A00080907090E002804DB1C
:1018F00000F1E02080F80014704700F00F0000F1C4
:10190000E02080F8141D704702E008C8121F08C1CB
:10191000002AFAD170477047002001E001C1121F70
:10192000002AFBD1704700002DE9FF4F89B09B468C
:101930000446002506E025280BD05A460B9990470F
:10194000641C6D1C20780028F5D10DB02846BDE838
:10195000F08F0027B8460122474900E0074314F8FA
:10196000013F203B02FA03F00842F7D120782E28ED
:1019700019D114F8010F47F004072A280ED06FF090
:101980002F022078A0F1300109290CD808EB88013A
:1019900002EB410100EB0108641CF2E70A98641CA9
:1019A00050F8048B0A9020780028CED0642808D004
:1019B000692806D075281ED05A460B9990476D1C91
:1019C00058E00A994FF00A0901C90A91002802DA81
:1019D00040422D2102E0390504D52B218DF820103D
:1019E000012103E0F90704D02021F7E78A4608AE79
:1019F0000DE00021FAE70A994FF00A0901C90A919E
:101A0000F7E74946FEF741FC303106F8011D002892
:101A1000F7D1ADEB060000F12009780701D44FF0B3
:101A20000108C84502DDA8EB090000E0002080465F
:101A3000002706E008A85A46C05D0B9990476D1C28
:101A40007F1C5745F6DB04E030205A460B9990473F
:101A50006D1CB8F10001A8F10108F5DC05E016F8ED
:101A6000010B5A460B9990476D1CB9F10001A9F181
:101A70000109F4DC641C65E7092801000A68531CAD
:101A80000B6010707047000008B5FFF70FF8FFF704
:101A900007FE2D480024016841F001010160016842
:101AA00001F001010091016841F00201016000684C
:101AB00000F002000090FFF7CBFD254823490160AC
:101AC0004FF4E131C0E901140C21C460C0E90441C4
:101AD0008461C461FFF71CFB1D4D1E4E4035641E22
:101AE0004FF47A7730781A4A2870403201239021D7
:101AF000A2F194000094FEF707FF48B9144A0423AA
:101B000040329021A2F194000094FEF70DFE28B11E
:101B10000F4811A14030FEF7AFFB05E00C482A78D2
:101B20000FA14030FFF7CCFE09484030FEF79DFB87
:101B3000074982B2234640310548FFF751FB38463A
:101B4000FEF7ECFBCEE70000303802400010014009
:101B500068000020000000204572726F720D0A00BC
:101B6000566F6C7461676520203D2025750D0A0055
:101B7000000000000000000001020304060708093D
:101B80000000000001020304A81B00080000002060
:101B90001400000008190008BC1B000814000020F5
:101BA000A404000018190008020000000100000051
:0C1BB00010000000000000000024F40001
:04000005080001AD41
:00000001FF
