:020000040800F2
:10000000E0040020C101000893120008BB110008A1
:1000100091120008CD020008CD1800080000000071
:10002000000000000000000000000000971200081F
:10003000CF02000800000000951200089912000885
:10004000DB010008DB010008DB010008DB01000820
:10005000DB010008DB010008DB010008DB01000810
:10006000DB010008DB010008DB010008DB01000800
:10007000DB010008DB010008DB010008DB010008F0
:10008000DB010008DB010008DB010008DB010008E0
:10009000DB010008DB010008DB010008DB010008D0
:1000A000DB010008DB010008DB010008DB010008C0
:1000B000DB010008DB010008DB010008DB010008B0
:1000C000DB010008DB010008DB010008DB010008A0
:1000D000DB010008DB010008DB010008DB01000890
:1000E000DB010008DB010008DB010008DB01000880
:1000F000DB010008DB010008DB010008DB01000870
:10010000DB010008DB010008DB010008DB0100085F
:10011000DB010008DB010008DB010008DB0100084F
:10012000DB010008DB010008DB010008DB0100083F
:10013000DB010008DB010008DB010008DB0100082F
:10014000DB010008DB010008DB010008DB0100081F
:10015000DB010008DB010008DB010008DB0100080F
:10016000DB010008DB010008DB010008DB010008FF
:10017000DB010008DB010008DB01000800000000D3
:10018000DB010008DB010008DB010008DB010008DF
:10019000DB010008DB010008DB010008DB010008CF
:1001A000DB010008DB010008DB010008DFF80CD0F0
:1001B00000F07AF8004800470D190008E00400201C
:1001C0000648804706480047FEE7FEE7FEE7FEE7F1
:1001D000FEE7FEE7FEE7FEE7FEE7FEE72513000881
:1001E000AD0100082DE9F05F0546002092469B46D0
:1001F00088460646814640241BE02846414647463D
:10020000224600F041F853465A46C01A914110D395
:1002100011461846224600F028F82D1A67EB01080F
:100220004F4622460120002100F01FF817EB00097D
:100230004E41201EA4F10104DFDC484631462A4627
:100240004346BDE8F09FD2B201E000F8012B491E01
:10025000FBD270470022F6E710B513460A46044663
:100260001946FFF7F0FF204610BD202A04DB203A94
:1002700000FA02F1002070479140C2F1200320FAF9
:1002800003F3194390407047202A04DB203A21FAF7
:1002900002F00021704721FA02F3D040C2F120029F
:1002A0009140084319467047064C074D06E0E06848
:1002B00040F0010394E8070098471034AC42F6D3AD
:1002C000FFF778FF1C1A00083C1A0008FEE7704789
:1002D0002DE9F84F00224FF0010803254FF00F0ED3
:1002E0000B6808FA02F42340A3426ED14E68012E37
:1002F00005D0022E03D0112E01D0122E12D1866805
:100300004FEA420C05FA0CF7BE43CF6807FA0CF728
:10031000374387604668A6430C79C4F300149440C1
:1003200034434460C668570005FA07FC8C6826EA27
:100330000C06BC403443C4604C68022C01D0122C23
:1003400013D1D40800EB8404A346D4F820905407BA
:100350004FEAD46A0EFA0AF629EA06090E6906FA85
:100360000AF646EA0906CBF8206004680E7924EA0A
:100370000C0406F00306BE40264306604C68E40009
:100380006FD53B4C266846F480462660246822F0F0
:10039000030604F480440094364C3444A446D4F854
:1003A00008489607360F0EFA06F7BC43324FB8429C
:1003B00001D100272EE0314FB84201D1012729E0B9
:1003C0002F4FB84202D1022724E04AE02D4FB84215
:1003D00001D103271EE02C4FB84201D1042719E0B8
:1003E0002A4FB84201D1052714E0294FB84201D164
:1003F00006270FE0274FB84201D107270AE0264F12
:10040000B84201D1082705E0244FB84201D109279D
:1004100000E00A27B7402743CCF80878204E34681C
:100420004F689C43FF0300D51C4334601C4E361DAF
:1004300034684F689C43BF0300D51C433460184E9A
:10044000083634684F689C43FF0200D51C43346073
:10045000134E0C3634684F689C43BF0200D51C43D2
:100460003460521C102AFFF43BAFBDE8F88F000047
:1004700044380240003001400000024000040240C5
:1004800000080240000C024000100240001402402C
:1004900000180240001C02400020024000240240DC
:1004A000003C014001488068704700000C000020BB
:1004B0000248816802781144816070470C00002076
:1004C0000B4810B5016841F400710160016841F406
:1004D00080610160016841F480710160032000F0D7
:1004E00061F8002000F006F800F024F8002010BDAC
:1004F000003C024070B50D4D04464FF47A712878E7
:10050000B1FBF0F00A490968B1FBF0F000F0F6FA2F
:1005100048B9102C07D200222146501E00F022F8C4
:1005200000206C6070BD012070BD00000C00002038
:10053000180000200A4808B5016841F480410160B4
:10054000006800F4804000900548001F016841F0F9
:1005500080510160006800F08050009008BD0000EC
:1005600044380240F0B40E4B1B680C46C3F3022320
:10057000C3F10705042D00D90425191D072901D24F
:10058000002300E0DB1E012606FA05F1491E21408A
:1005900099409E40761E16403143F0BC01F097B959
:1005A0000CED00E0064900F0070208684FF6FF0373
:1005B000184040EA0220034A1043086070470000D8
:1005C0000CED00E00000FA052DE9F0470E460500AD
:1005D00065D0DFF81481D8F80000F7B200F00F0002
:1005E000B04207D288F80070D8F8000000F00F0081
:1005F000B04254D128683D4C810712D5400703D53D
:10060000206840F4E05020602878000703D5206877
:1006100040F4604020602068A96820F0F0000843A2
:1006200020602878C0072DD0304968680839012833
:1006300012D0022813D0032811D009688907002995
:100640002DDA216821F0030101432160FFF72AFF21
:10065000814641F2883A0EE009688903EFE70968AC
:100660008901ECE7FFF71EFFA0EB0901514502D914
:100670000320BDE8F0872068696800F00C00B0EB4B
:10068000810FEFD1D8F80010404601F00F01B142C0
:1006900007D90770006800F00F00B04201D00120B8
:1006A000E7E72878400705D52068E96820F4E0509E
:1006B000084320602878000706D52068296920F4BF
:1006C000604040EAC100206000F038F82168084A24
:1006D000C1F30311515CC840064908600648006830
:1006E000FFF708FF0020C4E7003C02400838024042
:1006F000041A0008180000201000002004480549D2
:1007000000680968044AC1F38221515CC8407047FF
:100710001800002008380240141A0008044805494F
:1007200000680968044AC1F34231515CC84070470F
:100730001800002008380240141A0008154810B5A7
:10074000006810F00C02144813D01449042A0FD08A
:10075000082A0ED10F4C241F2268236802F03F02A2
:100760005B0207D52068C0F38810A0FB010106E0FA
:10077000084610BD2168C1F38811A1FB00010023C8
:10078000FFF730FD2168C1F30141491C4900B0FB6E
:10079000F1F010BD083802400024F40040787D01DB
:1007A0002DE9F84F040076D02078DFF838A3CE4D3D
:1007B000C00749D0DAF800105046C1F38101012981
:1007C00008D00068C0F3810002280AD1281D006803
:1007D000400206D52868800336D560680028E2D03C
:1007E00032E06068B0F5803F10D0B0F5A02F2868E7
:1007F00010D020F480302860286820F48020286001
:100800006068A0B1FFF74EFE06460CE0286840F491
:100810008030F4E740F480202860F7E7FFF742FEDD
:10082000801B642873D828688003F7D50CE0FFF795
:1008300039FE064605E000BFFFF734FE801B642842
:10084000F0D828688003F7D42078DFF8A0828007EA
:100850004FF000093ED5DAF80010504611F00C0FA9
:1008600009D00068C0F3810002280BD19D48001F09
:100870000068400206D42868800715D5E068012882
:1008800009D111E0E068B8B10120C8F80000FFF715
:1008900009FE064605E020E1FFF704FE801B022862
:1008A000C0D828688007F7D52868216920F0F800AB
:1008B00040EAC10028600DE0C8F80090FFF7F2FDA3
:1008C000064604E0FFF7EEFD801B02281FD82868CB
:1008D0008007F7D42078000722D5824E84486169CA
:1008E0006C3671B101210160FFF7DCFD074604E0C1
:1008F000FFF7D8FDC01B022809D830688007F7D55C
:100900000EE0C0F80090FFF7CDFD074605E082E05D
:10091000FFF7C8FDC01B02287DD830688007F7D4D8
:100920002078400768D5DFF8BCB100270BF1380B01
:10093000DBF80000C0000BD4DBF8001041F0805160
:10094000CBF80010DBF80000012700F08050009089
:10095000684E3068C00510D4306840F48070306054
:10096000FFF7A0FD009005E0FFF79CFD0099401AFD
:10097000022850D83068C005F6D55A4EA0686836AF
:1009800001280FD00528306810D020F00100306019
:10099000306820F004003060A068B8B1FFF782FD35
:1009A00000900FE0306840F00100F4E740F00400F0
:1009B0003060F7E7FFF776FD0099411A41F2883081
:1009C000814266D830688007F4D50EE0FFF76AFDF3
:1009D000009007E0FFF766FD0099411A41F2883068
:1009E000814256D830688007F4D42FB1DBF800106C
:1009F00021F08051CBF80010A069D0B3DAF80020C4
:100A00005146C2F38102022A4AD00228484607D042
:100A1000C8F8600000E03CE0FFF744FD04463BE01E
:100A20004746C8F86000FFF73DFD064605E000BFF9
:100A3000FFF738FD801B02282BD828688001F7D4E7
:100A4000D4E907010843A16A2B4A490802EB014196
:100A5000626A41EA8211084394F82C1040EA01616D
:100A60002048001F016001203866FFF71BFD044687
:100A700005E034E0FFF716FD001B022809D82868BE
:100A80008001F7D52BE000BFFFF70CFD001B02280B
:100A900002D90320BDE8F88F28688001F4D41EE055
:100AA0000128F7D00868E26900F48001914214D16E
:100AB000226A00F03F0191420FD147F6C071626A8D
:100AC0000140914209D1A26A00F44031914204D11F
:100AD000E16A00F07060884201D00120DAE700206E
:100AE000D8E70000083802400038024000004742C2
:100AF000800E4742007000400000FFFF10B5401E0E
:100B0000B0F1807F01D3012010BD4FF0E02460617F
:100B10000F21601700F0DBFE0020A061072020619C
:100B2000002010BD70B590F83C20012A32D001247D
:100B300080F83C40022280F83D2003685A689D6896
:100B400022F070060A6832435A60134B02689A42D8
:100B500014D0B2F1804F11D0104B9A420ED0104BEE
:100B60009A420BD00F4B9A4208D00F4B9A4205D0B5
:100B70000E4B9A4202D00E4B9A4204D1496825F09E
:100B800080031943916080F83D40002180F83C10BB
:100B9000084670BD022070BD000001400004004006
:100BA00000080040000C00400004014000400140EB
:100BB0000018004010B5040003D094F83D0010B1B7
:100BC00007E0012010BD002084F83C00204600F022
:100BD0000DF8022084F83D00211D206800F0B0FBD4
:100BE000012084F83D00002010BD000010B586B043
:100BF000044614216846FFF72DFB194B226800219B
:100C000018489A421FD1026842F00202026000684E
:100C100000F00200059013481438026842F0040204
:100C20000260006800F004000590C02000900220DF
:100C3000CDE901010320CDE9031069460A48FFF719
:100C400047FB06B010BD09498A42FAD1016841F458
:100C500080210160006800F480200590F1E7000029
:100C600000040140443802400008024000480140AE
:100C7000022180F83D1001688A6802F00702062A06
:100C800003D00A6842F001020A60012180F83D1099
:100C9000002070472DE9F041044690F83C000D46D5
:100CA00001283DD0012684F83C60022084F83D00F4
:100CB000AAB3042A46D02068082A55D0D5E90027CF
:100CC000E968036A23F480530362D0F81CC0036A06
:100CD0002CF4407C4CEA07274FF6FF7C27F4704742
:100CE0000CEA013139434FF4204723F4204307EA4B
:100CF00002321A43C16102622068C16921F4406175
:100D0000C1612068C169AA6841EA0221C0F81C10CB
:100D100084F83D60002084F83C00BDE8F08101E0EB
:100D20000220FAE7D5E90012EB68206800F09AFC8F
:100D30002068816921F00C01816120688169AA68BD
:100D400011430FE0D5E90012EB68206800F0DCFCED
:100D50002068816921F44061816120688169AA6805
:100D600041EA02218161D3E7D5E9002C2F7B016A9A
:100D700021F480710162C169036A21F0030141EA33
:100D80000C0121F0F00C39074FF420674CEA116197
:100D900023F4206307EA02221A43C1610262206839
:100DA000C16921F00C01C1612068C169AA681143C1
:100DB000ACE710B5040003D094F83D0010B107E093
:100DC000012010BD002084F83C00204600F00CF803
:100DD000022084F83D00211D206800F0B1FA0120B6
:100DE00084F83D00002010BD704710B5044600682F
:100DF000012200F009FB2068816801F00701062943
:100E000003D0016841F001010160002010BD000025
:100E100010B586B0044614216846FFF71BFA0E4948
:100E20002068884215D10D480021026842F0200256
:100E30000260006800F020000590802000900220F1
:100E4000CDE901010320CDE9031069460448FFF70D
:100E50003FFA06B010BD00000048014030380240A3
:100E60000014024070B5044690F83C000D4601287D
:100E70000DD0012684F83C60022084F83D0042B188
:100E8000042A18D0082A2AD00C2A4DD139E0022091
:100E900070BD206800F0D0FA2068816941F0080137
:100EA00081612068816921F0040181612068816984
:100EB0002A69114311E0206800F0EEFA2068816988
:100EC00041F4006181612068816921F48061816160
:100ED000206881692A6941EA0221816124E0206851
:100EE00000F010FB2068C16941F00801C161206871
:100EF000C16921F00401C1612068C1692A691143F7
:100F000011E0206800F032FB2068C16941F4006103
:100F1000C1612068C16921F48061C1612068C16933
:100F20002A6941EA0221C16184F83D60002084F809
:100F30003C0070BD10B5040003D094F83D0010B122
:100F400007E0012010BD002084F83C00204600F09E
:100F50000CF8022084F83D00211D206800F0F0F913
:100F6000012084F83D00002010BD704710B50446F4
:100F70000068012200F048FA0B492068884202D03C
:100F80000A49884203D1416C41F400414164206820
:100F9000816801F00701062903D0016841F00101D1
:100FA0000160002010BD000000000140000401406D
:100FB0000246002041B1042909D008290AD00C2991
:100FC00001D11068006C70471068406B7047106862
:100FD000806B70471068C06B704770B5044690F81E
:100FE0003C00012812D0012584F83C50022084F8EE
:100FF0003D00204600F0E2FA01004FF0000007D06B
:1010000084F83D5084F83C00012070BD022070BD82
:101010002168CA6822F04002CA602168CA6822F4C6
:101020008042CA6084F83D5084F83C00002070BDC6
:1010300070B5040004D094F83900002510B106E022
:10104000012070BD84F83850204600F023F8242099
:1010500084F839002068C16821F40051C16020463D
:1010600000F06EFB2068016921F490410161206865
:10107000416921F02A0141612068C16841F40051B1
:10108000C160E563202084F8390084F83A0000202C
:1010900070BD000010B586B0044614216846FFF705
:1010A000D9F814492068884221D11348016841F0D9
:1010B00010010160006800F0100005900E4814381F
:1010C000016841F0010101600068694600F001001B
:1010D00005904FF4C0600090022001900120029022
:1010E00003200390072004900448FFF7F1F806B0AE
:1010F00010BD0000001001404438024000000240D2
:101100002DE9F843044690F839001F4616460D466F
:10111000202850D1B5B1AEB194F8380001284AD09A
:10112000012084F838004FF00008C4F83C802120EA
:1011300084F83900FFF7B6F9A6848146E68484F87E
:10114000388026E00120BDE8F883E08C401EE08472
:10115000A0684B46B0F5805F4FF000024FF0800171
:101160002046009703D000F07FFBE8B90DE000F0C7
:101170007BFBC8B928882168C0F308004860206953
:1011800008B16D1C05E0AD1C03E0216815F8010BEA
:101190004860E08C0028D8D14B46002240212046F0
:1011A000009700F061FB08B10320CCE7202084F811
:1011B00039000020C7E70220C5E7FEE710B588B078
:1011C0001C216846FFF746F810480F4900240160CB
:1011D000C721C0E9011449F63F41C0E90314846105
:1011E000FFF7E8FC0948FFF7A5FE6020CDE9000401
:1011F00002940022694605480494FFF733FE034831
:10120000FFF706FE08B010BD004801405C0000205A
:1012100010B58CB0142104A8FFF71CF800241B485B
:101220000A9409940094019402941749039401606C
:101230004F21C0E901144FF6FF71C0E90314446166
:101240008461FFF7B7FC1148FFF7B3FD0420049059
:101250006020CDE9050404A90C480894FFF7BDFE01
:10126000099409A909480A94FFF75CFC0A20009038
:101270000120CDE901040022694604480394FFF7E8
:1012800009FD0CB010BD0000000401401C0000204E
:10129000FEE7704770477047FFF70AB910B592B084
:1012A00030216846FEF7D6FF14210CA8FEF7D2FFC6
:1012B0001A480021026842F080520260006800F083
:1012C000805011901648026822F4404242F4804255
:1012D00002600068022400F4404011900120039055
:1012E00010200490009406940820CDE90710A02057
:1012F000CDE9090404200B906846FFF751FA0F204E
:10130000CDE90C0480200E9040010F901090022136
:101310000CA8FFF759F912B010BD00004038024088
:10132000007000400548016841F470010160034904
:101330004FF00060803908607047000088ED00E0E1
:10134000F0B50268254C264D264E274F274B4FF00F
:10135000804CA04209D0604507D0A84205D0B042D9
:1013600003D0B84201D0984204D122F0700E4A68EE
:1013700042EA0E02A0421BD0604519D0A84217D005
:10138000B04215D0B84213D0984211D0184DA8429F
:101390000ED0184DA8420BD0174DA84208D0174DBB
:1013A000A84205D0164DA84202D0164DA84203D13E
:1013B00022F44075CA682A434D6922F080022A430C
:1013C00002608A68C2620A688262A04201D09842C2
:1013D00001D10969016301214161F0BD00000140B3
:1013E0000004004000080040000C004000040140E0
:1013F0000040014000440140004801400018004006
:10140000001C00400020004010B501F01F03012126
:10141000046A99408C430462016A9A401143016254
:1014200010BD10B5846842EA032224F47F440A43C5
:101430002243826010BD0000F0B5026A22F0010272
:101440000262036A42688469124E24F073050C68D4
:101450002C4323F002058B682B430D4DA84201D08D
:10146000B04205D123F00807CB683B4323F00403C7
:10147000A84201D0B04205D14D6922F44072154313
:101480008A692A4342608461496841630362F0BD0E
:101490000000014000040140F0B5026A22F0100291
:1014A0000262026A436884690D6824F4E64444EAEF
:1014B00005248D6822F0200242EA05120F4D104EDD
:1014C000A84201D0B04206D1CF6822F0800242EAA1
:1014D000071222F04002A84201D0B04207D14D6964
:1014E00023F4406343EA85038D6943EA850343603F
:1014F0008461496881630262F0BD00000000014020
:1015000000040140F0B5026A22F480720262026AAD
:101510004368C46922F4007224F073050C68124E0B
:101520002C438D6842EA05220E4DA84201D0B042FC
:1015300006D1CF6822F4006242EA072222F48062D8
:10154000A84201D0B04207D14D6923F4405343EA89
:1015500005138D6943EA05134360C4614968C1639B
:101560000262F0BD000001400004014030B5026A93
:1015700022F480520262046A4268C3690D6823F44F
:10158000E64343EA05238D6824F4005444EA053415
:10159000084DA84202D0084DA84204D14D6922F45A
:1015A000804242EA85124260C36149680164046274
:1015B00030BD0000000001400004014010B5036888
:1015C0009A6822F070044A68224322F007040A68ED
:1015D00022439A604A6812F00F0F30D11211082A84
:1015E0002DD2DFE802F02C2C2C2C0B2127040B69C8
:1015F000D1E902210068FFF714FF20E00A68052AFC
:1016000010D00268136A146A24F00104146202689C
:101610009469096924F0F00444EA011191610068B9
:1016200003620CE0012010BD0A698968006800F0BF
:1016300008F804E00A698968006800F053F800209F
:1016400010BD10B5036A046A24F0010404628469C1
:1016500024F0F00444EA021423F00A020A438461ED
:10166000026210BD70B5046A24F00104046284694A
:10167000056A154EB04214D0B0F1804F11D0134E10
:10168000B0420ED0124EB0420BD0124EB04208D033
:10169000114EB04205D0114EB04202D0104EB042B1
:1016A00003D124F00304144301E044F001041A07B9
:1016B00024F0F00444EA126225F00A0301F00A0162
:1016C00019438261016270BD0000014000040040C6
:1016D00000080040000C00400004014000400140B0
:1016E0000018004010B5036A23F0100303628369F9
:1016F000046A23F4704343EA023224F0A00343EA6D
:1017000001118261016210BD30B5046A24F0100439
:1017100004628469056A24F4407444EA022222F4D3
:1017200070444FF6FF7202EA03322243A02425F0F0
:10173000A00304EA011119438261016230BD000077
:101740002DE9F041044600680169E26821F4405146
:10175000114301612169A068E2690843616911438D
:1017600008432168CA6849F20C639A430243CA607D
:1017700020684169A26921F4407111434161E06927
:10178000192764253226B0F5004F354A35492068BF
:101790004FF0000806D0884201D0904236D1FEF7C3
:1017A000BDFF35E0884201D0904202D1FEF7B6FF7E
:1017B00001E0FEF7A3FF61684A18A0FB070148EBB0
:1017C0000803FEF70FFD0146B0FBF5F00201B1FB87
:1017D000F5F06FF01803584301EB800006EBC000F2
:1017E000B0FBF5F000F0F80002EB4002B1FBF5F0C1
:1017F000584301EB800006EBC000B0FBF5F000F0B1
:101800000700216810448860BDE8F081FEF776FF8C
:1018100061688B0F8A00A0FB0701FEF7E3FC01461D
:10182000B0FBF5F06FF01802504301EB800006EBBF
:101830000010B0FBF5F000F0F002B1FBF5F002EBA8
:101840000012B1FBF5F06FF01803584301EB800074
:1018500006EB0010B0FBF5F000F00F00D1E7000040
:1018600000140140001001402DE9F0419846174650
:101870000E460446069D1DE0681C1BD02DB1FEF7E8
:1018800011FEA0EB0800A84214D92068C16821F419
:10189000D071C1602068416921F0010141612020BF
:1018A00084F8390084F83A00002084F838000320D6
:1018B000BDE8F0812068006836EA000004D000200E
:1018C000B842D9D00020F3E70120F9E7FEE7090785
:1018D000090E002804DB00F1E02080F800147047B6
:1018E00000F00F0000F1E02080F8141D704702E0C6
:1018F00008C8121F08C1002AFAD17047704700209B
:1019000001E001C1121F002AFBD170472DED028BAF
:1019100082B0FEF7D5FDFFF7C1FC34480024016812
:1019200041F020010160016801F02001019101688E
:1019300041F004010160016801F0040101910168B6
:1019400041F001010160006800F001000190FFF723
:101950005FFCFFF733FC2748254901604FF4E13174
:10196000C0E901140C21C460C0E904418461C46170
:10197000FFF75EFB1F484038FFF77AF91D488038B3
:10198000FFF776F91B4800214038FFF7EFFA1948B6
:1019900000218038FFF729FA1749012008604FF429
:1019A0009676164C9FED168AB0F10205FEF77AFD89
:1019B0006168401AB042F9D3FEF774FD60600D48CB
:1019C00000218038FFF7F4FA00EE100A20602B4661
:1019D000B8EE400A01226946C0EE080AC4ED020AC8
:1019E0008DF800000348FFF78BFBDFE7303802403B
:1019F000001001409C0000203448014000000020FD
:101A00000000684200000000000000000102030422
:101A10000607080900000000010203043C1A000840
:101A2000000000201C000000EE180008581A0008F2
:101A30001C000020C4040000FE1800080000000084
:101A40000000000000000000010000001000000085
:081A5000000000000024F40076
:04000005080001AD41
:00000001FF
