:020000040800F2
:1000000040440020810200087B100008071000080F
:1000100079100008B1030008511400080000000026
:10002000000000000000000000000000C101000806
:10003000B3030008000000001D0200087D10000846
:100040009B0200089B0200089B0200089B0200081C
:100050009B0200089B0200089B0200089B0200080C
:100060009B0200089B0200089B0200089B020008FC
:100070009B0200089B0200089B0200089B020008EC
:100080009B0200089B0200089B0200089B020008DC
:100090009B0200089B0200089B0200089B020008CC
:1000A0009B0200089B0200089B0200089B020008BC
:1000B0009B020008391100089B0200089B020008FF
:1000C0009B0200089B0200089B0200089B0200089C
:1000D0009B0200089B0200089B0200089B0200088C
:1000E0009B0200089B0200089B0200089B0200087C
:1000F0009B0200089B0200089B0200089B0200086C
:100100009B0200089B0200089B0200089B0200085B
:100110009B0200089B0200089B0200089B0200084B
:100120009B0200089B0200089B0200089B0200083B
:100130009B0200089B0200089B0200089B0200082B
:100140009B0200089B0200089B0200089B0200081B
:100150009B0200089B0200089B0200089B0200080B
:100160009B0200089B0200089B0200089B020008FB
:100170009B0200089B0200089B0200080000000090
:100180009B0200089B0200089B0200089B020008DB
:100190009B0200089B0200089B0200089B020008CB
:1001A0009B0200089B0200089B020008DFF80CD0AD
:1001B00000F0ECF80048004791140008404400208B
:1001C0002C4B19680868B0E8F04F80F30988BFF33A
:1001D0006F8F4FF0000080F311887047000000001F
:1001E00008480068006880F308884FF0000080F33A
:1001F000148862B661B6BFF34F8FBFF36F8F00DF15
:1002000000BF00BF08ED00E0DFF80C00016841F41A
:1002100070010160704700BF88ED00E0EFF30980D6
:10022000BFF36F8F134B1A681EF0100F08BF20ED3D
:10023000108A20E9F04F106009B44FF0500080F3AD
:100240001188BFF34F8FBFF36F8F01F013FE4FF094
:10025000000080F3118809BC19680868B0E8F04F05
:100260001EF0100F08BFB0EC108A80F30988BFF3AE
:100270006F8F70471C000020EFF30580704700006F
:100280000648804706480047FEE7FEE7FEE7FEE730
:10029000FEE7FEE7FEE7FEE7FEE7FEE71D110008CA
:1002A000AD0100082DE9F05F0546002092469B460F
:1002B00088460646814640241BE02846414647467C
:1002C000224600F053F853465A46C01A914110D3C3
:1002D00011461846224600F03AF82D1A67EB01083D
:1002E0004F4622460120002100F031F817EB0009AB
:1002F0004E41201EA4F10104DFDC484631462A4667
:100300004346BDE8F09F40EA01039B0703D009E0A4
:1003100008C9121F08C0042AFAD203E011F8013BF1
:1003200000F8013B521EF9D27047D2B201E000F84A
:10033000012B491EFBD270470022F6E710B5134689
:100340000A4604461946FFF7F0FF204610BD202A52
:1003500004DB203A00FA02F1002070479140C2F11C
:10036000200320FA03F3194390407047202A04DB4E
:10037000203A21FA02F00021704721FA02F3D0401E
:10038000C2F120029140084319467047064C074DC0
:1003900006E0E06840F0010394E807009847103455
:1003A000AC42F6D3FFF706FFE0280008002900085A
:1003B000FEE770472DE9F84F00224FF001080325B2
:1003C0004FF00F0E0B6808FA02F42340A3426ED1DF
:1003D0004E68012E05D0022E03D0112E01D0122E10
:1003E00012D186684FEA420C05FA0CF7BE43CF687B
:1003F00007FA0CF7374387604668A6430C79C4F3C5
:100400000014944034434460C668570005FA07FC62
:100410008C6826EA0C06BC403443C4604C68022C4D
:1004200001D0122C13D1D40800EB8404A346D4F8D5
:10043000209054074FEAD46A0EFA0AF629EA060910
:100440000E6906FA0AF646EA0906CBF82060046847
:100450000E7924EA0C0406F00306BE40264306602B
:100460004C68E4006FD53B4C266846F48046266015
:10047000246822F0030604F480440094364C34448B
:10048000A446D4F808489607360F0EFA06F7BC4380
:10049000324FB84201D100272EE0314FB84201D18E
:1004A000012729E02F4FB84202D1022724E04AE079
:1004B0002D4FB84201D103271EE02C4FB84201D185
:1004C000042719E02A4FB84201D1052714E0294F2B
:1004D000B84201D106270FE0274FB84201D10727C4
:1004E0000AE0264FB84201D1082705E0244FB84260
:1004F00001D1092700E00A27B7402743CCF8087844
:10050000204E34684F689C43FF0300D51C43346081
:100510001C4E361D34684F689C43BF0300D51C43F6
:100520003460184E083634684F689C43FF0200D58B
:100530001C433460134E0C3634684F689C43BF0232
:1005400000D51C433460521C102AFFF43BAFBDE8B9
:10055000F88F0000443802400030014000000240A3
:100560000004024000080240000C0240001002405B
:100570000014024000180240001C0240002002400B
:1005800000240240003C01400069084000D00120E6
:100590007047426931EA020200D109048161704763
:1005A0000AB1816170470904FBE7000001488068D7
:1005B000704700000C000020024881680278114456
:1005C000816070470C0000200B4810B5016841F4B1
:1005D00000710160016841F480610160016841F4CB
:1005E00080710160032000F08DF8002000F006F813
:1005F00000F03EF8002010BD003C024010B501465E
:1006000088B000221D2000F05DF81D2000F04CF89D
:1006100013480024016841F002010160006805A947
:1006200000F002000690684600F018F900F036F974
:100630000C490D4AB0FBF1F10C48491E026040F232
:10064000E732C0E90324C0E9011400F029FB10B12E
:10065000012008B010BD054800F03EFBF9E700009E
:100660004038024040420F000004004010030020C8
:100670000C4882B0016841F480410160006800F4D8
:10068000804000900748001F016841F080510160E0
:100690000068002200F0805000900F21901E02B0F0
:1006A00000F010B844380240002809DB00F01F02B7
:1006B000012191404009800000F1E020C0F80011C4
:1006C00070470000F0B40E4B1B680C46C3F30223C6
:1006D000C3F10705042D00D90425191D072901D2EE
:1006E000002300E0DB1E012606FA05F1491E214029
:1006F00099409E40761E16403143F0BC00F0A9BEE2
:100700000CED00E0064900F0070208684FF6FF0311
:10071000184040EA0220034A104308607047000076
:100720000CED00E00000FA052DE9F0470E4605004B
:1007300065D0DFF81481D8F80000F7B200F00F00A0
:10074000B04207D288F80070D8F8000000F00F001F
:10075000B04254D128683D4C810712D5400703D5DB
:10076000206840F4E05020602878000703D5206816
:1007700040F4604020602068A96820F0F000084341
:1007800020602878C0072DD03049686808390128D2
:1007900012D0022813D0032811D009688907002934
:1007A0002DDA216821F0030101432160FFF7FEFEED
:1007B000814641F2883A0EE009688903EFE709684B
:1007C0008901ECE7FFF7F2FEA0EB0901514502D9E0
:1007D0000320BDE8F0872068696800F00C00B0EBEA
:1007E000810FEFD1D8F80010404601F00F01B1425F
:1007F00007D90770006800F00F00B04201D0012057
:10080000E7E72878400705D52068E96820F4E0503C
:10081000084320602878000706D52068296920F45D
:10082000604040EAC100206000F058F82168084AA2
:10083000C1F30311515CC8400649086006480068CE
:10084000FFF7DCFE0020C4E7003C0240083802400D
:10085000AD28000818000020100000200F220260C0
:100860000C4A136803F003034360136803F0F003BA
:100870008360136803F4E053C36012684FF4E053DD
:1008800003EAD20202610448006800F00F00086029
:100890007047000008380240003C02400448054907
:1008A00000680968044AC1F38221515CC84070475E
:1008B0001800002008380240BD28000804480549F7
:1008C00000680968044AC1F34231515CC84070476E
:1008D0001800002008380240BD280008154810B54F
:1008E000006810F00C02144813D01449042A0FD0E9
:1008F000082A0ED10F4C241F2268236802F03F0201
:100900005B0207D52068C0F38810A0FB010106E058
:10091000084610BD2168C1F38811A1FB0001002326
:10092000FFF7C0FC2168C1F30141491C4900B0FB3D
:10093000F1F010BD083802400024F40040787D0139
:100940002DE9F84F040076D02078DFF838A3CE4D9B
:10095000C00749D0DAF800105046C1F381010129DF
:1009600008D00068C0F3810002280AD1281D006861
:10097000400206D52868800336D560680028E2D09A
:1009800032E06068B0F5803F10D0B0F5A02F286845
:1009900010D020F480302860286820F4802028605F
:1009A0006068A0B1FFF702FE06460CE0286840F43C
:1009B0008030F4E740F480202860F7E7FFF7F6FD89
:1009C000801B642873D828688003F7D50CE0FFF7F4
:1009D000EDFD064605E000BFFFF7E8FD801B64283B
:1009E000F0D828688003F7D42078DFF8A082800749
:1009F0004FF000093ED5DAF80010504611F00C0F08
:100A000009D00068C0F3810002280BD19D48001F67
:100A10000068400206D42868800715D5E0680128E0
:100A200009D111E0E068B8B10120C8F80000FFF773
:100A3000BDFD064605E020E1FFF7B8FD801B02285A
:100A4000C0D828688007F7D52868216920F0F80009
:100A500040EAC10028600DE0C8F80090FFF7A6FD4D
:100A6000064604E0FFF7A2FD801B02281FD8286875
:100A70008007F7D42078000722D5824E8448616928
:100A80006C3671B101210160FFF790FD074604E06B
:100A9000FFF78CFDC01B022809D830688007F7D506
:100AA0000EE0C0F80090FFF781FD074605E082E008
:100AB000FFF77CFDC01B02287DD830688007F7D483
:100AC0002078400768D5DFF8BCB100270BF1380B60
:100AD000DBF80000C0000BD4DBF8001041F08051BF
:100AE000CBF80010DBF80000012700F080500090E8
:100AF000684E3068C00510D4306840F480703060B3
:100B0000FFF754FD009005E0FFF750FD0099401AF3
:100B1000022850D83068C005F6D55A4EA06868360D
:100B200001280FD00528306810D020F00100306077
:100B3000306820F004003060A068B8B1FFF736FDDF
:100B400000900FE0306840F00100F4E740F004004E
:100B50003060F7E7FFF72AFD0099411A41F288302B
:100B6000814266D830688007F4D50EE0FFF71EFD9D
:100B7000009007E0FFF71AFD0099411A41F2883012
:100B8000814256D830688007F4D42FB1DBF80010CA
:100B900021F08051CBF80010A069D0B3DAF8002022
:100BA0005146C2F38102022A4AD00228484607D0A1
:100BB000C8F8600000E03CE0FFF7F8FC04463BE0CA
:100BC0004746C8F86000FFF7F1FC064605E000BFA5
:100BD000FFF7ECFC801B02282BD828688001F7D493
:100BE000D4E907010843A16A2B4A490802EB0141F5
:100BF000626A41EA8211084394F82C1040EA0161CC
:100C00002048001F016001203866FFF7CFFC044632
:100C100005E034E0FFF7CAFC001B022809D8286869
:100C20008001F7D52BE000BFFFF7C0FC001B0228B6
:100C300002D90320BDE8F88F28688001F4D41EE0B3
:100C40000128F7D00868E26900F48001914214D1CC
:100C5000226A00F03F0191420FD147F6C071626AEB
:100C60000140914209D1A26A00F44031914204D17D
:100C7000E16A00F07060884201D00120DAE70020CC
:100C8000D8E7000008380240003802400000474220
:100C9000800E4742007000400000FFFF7047704721
:100CA00010B5040003D094F83D0010B107E0012016
:100CB00010BD002084F83C00204600F00CF8022013
:100CC00084F83D00211D206800F03CFA012084F8E2
:100CD0003D00002010BD70470168CA6842F0010263
:100CE000CA600068816801F00701062903D0016825
:100CF00041F00101016000207047704770B5044663
:100D0000006801694FF00005C943890715D4C1681F
:100D1000C943890711D4E91E0161012020772068A9
:100D200080698007204602D0FFF7E7FF04E000F06B
:100D300098F8204600F096F8257720680169C943A5
:100D4000490717D4C168C943490713D46FF0040198
:100D50000161022020772068806910F4407F2046DE
:100D600002D0FFF7CAFF04E000F07BF8204600F055
:100D700079F8257720680169C943090716D4C16845
:100D8000C943090712D46FF00801016104202077DC
:100D90002068C0698007204602D0FFF7AEFF04E05C
:100DA00000F05FF8204600F05DF8257720680169C3
:100DB000C943C90617D4C168C943C90613D46FF023
:100DC00010010161082020772068C06910F4407F7D
:100DD000204602D0FFF791FF04E000F042F82046E1
:100DE00000F040F8257720680169C943C90708D198
:100DF000C168C943C90704D1891E0161204600F0BA
:100E000033F820680169C943090609D4C168C94398
:100E1000090605D46FF0800101612046FFF73EFF0F
:100E200020680169C943490609D4C168C943490614
:100E300005D46FF040010161204600F01FF82068E2
:100E40000169C94389060BD4C168C943890607D41F
:100E50006FF0200101612046BDE87040FFF71FBF21
:100E600070BD70477047000000680349884201D197
:100E7000FFF7A2BB7047000000040040704770B548
:100E8000040004D094F83900002510B106E00120D8
:100E900070BD84F83850204600F022F8242084F8F1
:100EA00039002068C16821F40051C160204600F07B
:100EB00009FA2068016921F49041016120684169C3
:100EC00021F02A0141612068C16841F40051C160EC
:100ED000E563202084F8390084F83A00002070BDD2
:100EE00010B586B0044614216846FFF725FA144968
:100EF0002068884221D11348016841F01001016047
:100F0000006800F0100005900E481438016841F0A8
:100F1000010101600068694600F0010005904FF48E
:100F2000C0600090022001900120029003200390F5
:100F3000072004900448FFF73DFA06B010BD0000FA
:100F40000010014044380240000002402DE9F843FF
:100F5000044690F839001F4616460D46202850D109
:100F6000B5B1AEB194F8380001284AD0012084F818
:100F700038004FF00008C4F83C80212084F8390084
:100F8000FFF714FBA6848146E68484F8388026E0C7
:100F90000120BDE8F883E08C401EE084A0684B4649
:100FA000B0F5805F4FF000024FF0800120460097BF
:100FB00003D000F01BFAE8B90DE000F017FAC8B949
:100FC00028882168C0F308004860206908B16D1CBA
:100FD00005E0AD1C03E0216815F8010B4860E08CCA
:100FE0000028D8D14B46002240212046009700F02F
:100FF000FDF908B10320CCE7202084F83900002057
:10100000C7E70220C5E7FEE7F0B587B014216846C0
:10101000FFF792F915480024016841F001010160D1
:10102000016801F001010591016841F04001016092
:1010300000680F4F00F040004FF4C0460590224674
:1010400031463846FFF7ACFA0125CDE90054694630
:1010500008480294FFF7AEF90096CDE901546946BD
:1010600038460394FFF7A6F907B0F0BD30380240C8
:101070000018024000000240FEE7704710B5502003
:1010800080F31188BFF34F8FBFF36F8F01F042FAE7
:1010900018B104494FF080500860002080F3118897
:1010A00010BD000004ED00E010B592B0302168469C
:1010B000FFF742F914210CA8FFF73EF91548002468
:1010C000016841F080510160006800F0805011908B
:1010D0001148016821F4404141F4804101600068F9
:1010E000069400F4404011900220009001200390EB
:1010F000102004906846FFF723FC0F20CDE90C0474
:101100000E940F9400210CA81094FFF70DFB12B061
:1011100010BD0000403802400070004005480168E2
:1011200041F47001016003494FF0006080390860AC
:101130007047000088ED00E00148FFF7DFBD0000C8
:1011400010030020F0B50268254C264D264E274F8F
:10115000274B4FF0804CA04209D0604507D0A842F1
:1011600005D0B04203D0B84201D0984204D122F059
:10117000700E4A6842EA0E02A0421BD0604519D0A8
:10118000A84217D0B04215D0B84213D0984211D01F
:10119000184DA8420ED0184DA8420BD0174DA842AA
:1011A00008D0174DA84205D0164DA84202D0164DC2
:1011B000A84203D122F44075CA682A434D6922F03F
:1011C00080022A4302608A68C2620A688262A04280
:1011D00001D0984201D10969016301214161F0BD4B
:1011E000000001400004004000080040000C0040E6
:1011F000000401400040014000440140004801401B
:1012000000180040001C00400020004088B01C2254
:1012100011496846FFF777F8104E4FF0FF344FF44E
:1012200000554FF4FA7721460D4801F017F829468A
:101230003046FFF7AEF90523192269460948FFF742
:1012400085FE00231A461946054800F057FF384628
:1012500000F064F9E7E70000782800080018024071
:10126000080000207C00002088B01C22114968463C
:10127000FFF749F8104C4FF0FF354FF4FA76012193
:101280002046FFF781F901280FD129460B4800F0CD
:10129000E5FF0523192269460948FFF757FE002399
:1012A0001A461946054800F029FF304600F036F985
:1012B000E5E7000094280008000002400800002034
:1012C0007C0000202DE9F041044600680169E268D5
:1012D00021F44051114301612169A068E26908438A
:1012E0006169114308432168CA6849F20C639A4353
:1012F0000243CA6020684169A26921F44071114328
:101300004161E069192764253226B0F5004F354A5E
:10131000354920684FF0000806D0884201D090423D
:1013200036D1FFF7CBFA35E0884201D0904202D1A6
:10133000FFF7C4FA01E0FFF7B1FA61684A18A0FBB1
:10134000070148EB0803FEF7ADFF0146B0FBF5F0DF
:101350000201B1FBF5F06FF01803584301EB800078
:1013600006EBC000B0FBF5F000F0F80002EB400225
:10137000B1FBF5F0584301EB800006EBC000B0FB79
:10138000F5F000F00700216810448860BDE8F081A6
:10139000FFF784FA61688B0F8A00A0FB0701FEF754
:1013A00081FF0146B0FBF5F06FF01802504301EBEE
:1013B000800006EB0010B0FBF5F000F0F002B1FB8E
:1013C000F5F002EB0012B1FBF5F06FF01803584393
:1013D00001EB800006EB0010B0FBF5F000F00F0011
:1013E000D1E7000000140140001001402DE9F04158
:1013F000984617460E460446069D1DE0681C1BD005
:101400002DB1FFF7D3F8A0EB0800A84214D920684B
:10141000C16821F4D071C1602068416921F00101E7
:101420004161202084F8390084F83A00002084F8D3
:1014300038000320BDE8F0812068006836EA00002B
:1014400004D00020B842D9D00020F3E70120F9E70A
:10145000FEE70907090E002804DB00F1E02080F810
:101460000014704700F00F0000F1E02080F8141D18
:10147000704702E008C8121F08C1002AFAD170475D
:101480007047002001E001C1121F002AFBD1704704
:1014900090B0FFF799F8FFF707FEFFF7B5FD194881
:1014A0001749002401604FF4E131C0E901140C2117
:1014B000C460C0E904418461C461FFF7E0FC0E949C
:1014C00001210EA80F9400F035F80F4C1C220F4993
:1014D000A0606846FEF717FF0021684600F049F853
:1014E0000A4920601C221C3107A8FEF70CFF0021CE
:1014F00007A800F03EF8606000F017F8FEE7000073
:10150000001001407C00002000000020402800085E
:1015100001460020842900D0C81C704710B500B9CE
:10152000012000F0C9FB002010BD10B500F064FCE4
:10153000002010BD38B543684BB1012909D1032003
:10154000002200901146012000F060FD38BD012905
:1015500001D0002038BD03220021012000F032FD1F
:10156000040004D000231A46194600F0C7FD2046A7
:1015700038BD7FB50D4604464169B0F9080081B118
:10158000A16971B1FFF7C4FFD4E905128DE8070026
:10159000D4E900102B46226900F083FF039004B0C9
:1015A00070BDFFF7B5FF03A9CDE90001208A2B46E6
:1015B00082B2D4E9001000F047FF012801D00020DA
:1015C000EDE70398EBE700002DE9F041184C0F46DA
:1015D000054666692068001D00F0AAFA38B920683F
:1015E00090F82C1001208840A1698143A161681CFA
:1015F00007D137B12168BDE8F0410E48091D00F060
:10160000DBBA20683544B5424560216805D2A06840
:10161000BDE8F041091D00F0B7BA6068091D00F08F
:10162000B3FA206B854200D22563BDE8F08100004B
:101630001C0000202C0400202DE9F041054600F09C
:10164000C7FA2E4C2069401C206120682C4F10B135
:10165000E06940B32DE025602069012829D10026EA
:1016600006EB860007EB800000F080FA761C072E60
:10167000F6D323488C3000F079FA2148A03000F0EE
:1016800075FA1F48B43000F071FA1D48C83000F0F8
:101690006DFA1B48DC3000F069FA19488C30606044
:1016A0001430A06005E02068E96AC06A884200D86A
:1016B0002560E06A401CE062E96A0120A269884076
:1016C0001043A06101EB810007EB8000291D00F0B1
:1016D00073FA00F09DFAE06900280CD02068E96AEE
:1016E000C06A884207D207494FF080500860BFF3B4
:1016F0004F8FBFF36F8FBDE8F08100001C0000200A
:101700005003002004ED00E02DE9F041856B174601
:1017100004460026026C82B1C7B1E068FEF7F3FD13
:10172000E168206C091AE1602268914202D2616886
:10173000081AE060022F16D017E02068A8B9606888
:1017400000F04CFF0646002060600EE0A068FEF747
:10175000DAFD216CA0680844A0606168884204D367
:101760002068A06001E005B16D1E6D1CA5633046C8
:10177000BDE8F08110B5044690F8510058B1012839
:101780000CD002280FD0502080F31188BFF34F8F68
:10179000BFF36F8FFEE7206B00F04EFA2046BDE8E6
:1017A000104000F049BA10BD10484FF47051420784
:1017B00006D0C01D0D4920F00700411AC1F5705137
:1017C0000B4A00230144C2E900030839103A21F012
:1017D000070111604B600B600B1AC0E900139360A6
:1017E0004FF000405360D06070470000400400207C
:1017F00068000020144E154CA6F1C8074FF0805821
:10180000DFF84C9012E000BF00F0E2F9F068C56824
:10181000281D00F08DF92069401E2061E068401EFF
:10182000E06000F0F5F92846FFF7A4FFE068002823
:10183000EAD138680128F9D9C9F80080BFF34F8F81
:10184000BFF36F8FF2E70000180400201C00002097
:1018500004ED00E00346009829B10260C0E90F31B1
:10186000012100F007BC0060F8E72DE9F0479A4637
:10187000DDE9098481466FF00303206B03EB8202EC
:101880001044089D20F00706700707D0502080F311
:101890001188BFF34F8FBFF36F8FFEE723180A5CE9
:1018A00083F834200A5C12B1401C1028F6D30027BC
:1018B00084F84370072D00D30625E562C4E911576B
:1018C000201D00F05EF904F1180000F05AF92461BF
:1018D000C5F107006462A061E76484F85070524665
:1018E0004946304600F00EF92060B8F1000F01D0F3
:1018F000C8F80040BDE8F08730B5114900E0114656
:101900000A688242FBD34B685C18844203D140686A
:1019100018444860084643681C18944209D1084C92
:10192000103C2468A24209D052681A4442600A68F6
:1019300012680260814200D0086030BD0460F9E79F
:101940006800002010B5044600F042F9A06B28B1F1
:101950005FF0000400F05CF9204610BD0124F9E7B7
:1019600006484168096829B14168C968C968496879
:10197000016370474FF0FF31FAE700001C000020C0
:1019800008484068401C4FF0500080F3118804D094
:10199000BFF34F8FBFF36F8FFEE7BFF34F8FBFF3E0
:1019A0006F8FFEE7700000202DE9F041044600F043
:1019B0000FF994F9455004F1240609E0606A48B132
:1019C000304600F0A1FE08B100F0A4F96D1E6DB222
:1019D000002DF3DC4FF0FF3684F8456000F018F975
:1019E00000F0F6F894F9445004F1100709E020697A
:1019F00048B1384600F088FE08B100F08BF96D1E42
:101A00006DB2002DF3DC84F84460BDE8F04100F0D5
:101A1000FFB800002DE9F0410546002700F022FA4A
:101A2000314E306808B9FFF7BFFEF06805424BD170
:101A3000C5B3083568070ED005F00700C0F10800EF
:101A40000544680707D0502080F31188BFF34F8FFB
:101A5000BFF36F8FFEE72DB37068854234D82248FC
:101A6000103001460C6801E020460C466168A9422E
:101A700002D221680029F7D131688C4224D007684E
:101A80002168016060680837411B10290FD960196F
:101A9000420708D0502080F31188BFF34F8FBFF367
:101AA0006F8FFEE710E041606560FFF725FF61681A
:101AB0007068401A7060B268904200D2B060F068FE
:101AC00001430020C4E9000100F058FE780707D068
:101AD000502080F31188BFF34F8FBFF36F8FFEE765
:101AE0003846BDE8F081000058000020044908682D
:101AF00018B10868826C521C826408687047000044
:101B00001C00002010B5031F4FF080741C601B1FC9
:101B100021F001011960191F044B0B6014390A6090
:101B2000091F6FF0020244380A6010BD81190008D5
:101B3000D0E9013201699A60D0E901235A604A680C
:101B4000824201D182684A60002202610868401E18
:101B50000860086870470000034B036003F15400FD
:101B60000860802010607047BC00002000F1080170
:101B70004FF0FF32C0E90112C16001610021016034
:101B8000704700210161704730B50B685A1C02D0C4
:101B900000F1080202E0026904E022465468256868
:101BA0009D42FAD953684B6099608A605160086120
:101BB0000168491C016030BD42684A6093688B60CF
:101BC00093685960916008610168491C0160704721
:101BD000502080F31188BFF34F8FBFF36F8F0A49F6
:101BE0004868401C486001280CD10848006810F083
:101BF000FF0F07D0502080F31188BFF34F8FBFF342
:101C00006F8FFEE7704700007000002004ED00E0D9
:101C10000849486828B1401E486001D180F3118806
:101C20007047502080F31188BFF34F8FBFF36F8F41
:101C3000FEE700007000002070B5002827D0144D8A
:101C4000A0F108046168E868014207D1502080F3E0
:101C50001188BFF34F8FBFF36F8FFEE722683AB151
:101C6000502080F31188BFF34F8FBFF36F8FFEE7D3
:101C70008143616000F0F6F8606869680844686054
:101C80002046FFF739FEBDE8704000F077BD70BD1B
:101C9000580000204FF0E0200021016181610549DA
:101CA0004FF47A720968B1FBF2F1491E41610721D4
:101CB000016170471800002010B5020014D00F48D1
:101CC000806B38B1502080F31188BFF34F8FBFF382
:101CD0006F8FFEE700F0C6F800211046FFF774FC96
:101CE00000F04CFD002807D105494FF080500860F6
:101CF000BFF34F8FBFF36F8F10BD00001C0000209B
:101D000004ED00E002498A6A026049694160704757
:101D10001C00002001490120486270471C0000207F
:101D200010B50C4650B1094909681831FFF72CFF6E
:101D30002046BDE810400121FFF746BC502080F34B
:101D40001188BFF34F8FBFF36F8FFEE71C00002099
:101D500070B504004BD0A26CA2B1606C884200D375
:101D60000146E06A884242D0012A40D1204D2A68CB
:101D700094420FD1502080F31188BFF34F8FBFF3EF
:101D80006F8FFEE7502080F31188BFF34F8FBFF3B2
:101D90006F8FFEE7E162A269002A02DBC1F1070151
:101DA000A161144E00EB8000616906EB8000814266
:101DB0001DD1201DFFF7BCFE012150B9E06A00EBE8
:101DC000800256F8222022B9AA6901FA00F0824363
:101DD000AA61E06AAA6981401143A96100EB800011
:101DE00006EB8000211DBDE87040FFF7E5BE70BD29
:101DF0001C0000205003002010B586B0002403947E
:101E000005AA04A903A80494FFF7A6FEDDE90301CF
:101E10000094CDE9011000230EA11048059A00F0AE
:101E200040FB0F490028486311D0502080F31188EF
:101E3000BFF34F8FBFF36F8F4FF0FF300863012068
:101E4000C8614C6106B0BDE8104000F041B806B072
:101E500010BD000049444C4500000000F517000883
:101E60001C0000200248816B491C81637047000000
:101E70001C0000201448816B11B1012141627047A0
:101E8000002141628169B1FA81F1C1F11F0101EBC9
:101E900081020E4951F822306BB101EB820101F150
:101EA00008034A6852684A609A4201D152684A60FF
:101EB000D16801607047502080F31188BFF34F8FC5
:101EC000BFF36F8FFEE700001C00002050030020CE
:101ED0001CB537480168374A914207D1502080F33A
:101EE0001188BFF34F8FBFF36F8FFEE70068314952
:101EF000491E884207D1502080F31188BFF34F8FCD
:101F0000BFF36F8FFEE72C4908780190FF2008701F
:101F100008788DF800009DF800009DF8002000F082
:101F2000F000904207D0502080F31188BFF34F8F0C
:101F3000BFF36F8FFEE79DF80000204B00F05000CC
:101F400018700720986005E09DF8002052008DF879
:101F50000020401E9DF800201206F5D4986003284A
:101F600007D0502080F31188BFF34F8FBFF36F8FDE
:101F7000FEE74FF440709860019808700C482030DC
:101F8000016841F470010160016841F07041016035
:101F9000FFF780FE00205860FEF736F90848016818
:101FA00041F040410160FEF71BF900201CBD00001C
:101FB00000ED00E071C20F4100E400E0700000207D
:101FC00034EF00E0F8B517460E46050014D0DEB138
:101FD00005FB06F04830FFF71DFD04000AD0002085
:101FE00084F8460004F148023B46314628460094F6
:101FF000FFF730FC2046F8BD502080F31188BFF376
:102000004F8FBFF36F8FFEE70020E3E738B5049DE5
:1020100018B153B1CAB181B120E0502080F31188CA
:10202000BFF34F8FBFF36F8FFEE7502080F311880F
:10203000BFF34F8FBFF36F8FFEE7502080F31188FF
:10204000BFF34F8FBFF36F8FFEE739B1502080F39E
:102050001188BFF34F8FBFF36F8FFEE748241C46F4
:10206000012384F846302B460094FFF7F3FB20460B
:1020700038BD000070B50D46040025D0FFF7A8FD5F
:10208000D4E90F20216802FB001161600021A163E7
:102090002168A1600A46D4E90F01401E00FB01211E
:1020A000E16021464FF0FF3001F8440F487004F121
:1020B00010008DB1FFF75AFD04F12400FFF756FD23
:1020C000FFF7A6FD012070BD502080F31188BFF3FB
:1020D0004F8FBFF36F8FFEE721690029F0D000F02A
:1020E00013FB0028ECD004494FF080500860BFF388
:1020F0004F8FBFF36F8FE3E704ED00E02DE9FF475B
:1021000082B01D468A464FF00008040003D0BAF1A1
:10211000000F08D011E0502080F31188BFF34F8FDB
:10212000BFF36F8FFEE7206C38B1502080F3118829
:10213000BFF34F8FBFF36F8FFEE7022D0AD1E06B25
:10214000012807D0502080F31188BFF34F8FBFF3D1
:102150006F8FFEE700F0D0F93F4F4FF000094FF0CE
:10216000805648B9049838B1502080F31188BFF3E5
:102170004F8FBFF36F8FFEE7FFF72AFDA06BE16B78
:10218000884207D3022D05D00498D0B1B8F1000FD2
:102190001AD01EE02A4651462046FFF7B5FA616A7A
:1021A00019B104F1240000F0AFFA20B13E60BFF392
:1021B0004F8FBFF36F8FFFF72BFD012006B0BDE8F7
:1021C000F087FFF725FD22E06846FFF79BFD4FF003
:1021D0000108FFF71DFDFFF745FEFFF7F9FC94F935
:1021E0004400401C01D184F8449094F94500401CFF
:1021F00001D184F84590FFF70BFD04A9684600F073
:10220000E9F830B12046FFF7CFFB00F0B7FA002025
:10221000D4E7FFF7DDFCA06BE16B884213D1FFF739
:10222000F7FC04F110000499FFF77AFD2046FFF750
:10223000BBFB00F0A3FA00289ED13E60BFF34F8F96
:10224000BFF36F8F98E7FFF7E3FC2046FFF7ACFB87
:1022500000F094FA90E7000004ED00E02DE9F3436C
:10226000002683B00400354609D0206C78B1502098
:1022700080F31188BFF34F8FBFF36F8FFEE75020BD
:1022800080F31188BFF34F8FBFF36F8FFEE700F02D
:1022900033F9DFF83C814FF000094FF0805748B91F
:1022A000049838B1502080F31188BFF34F8FBFF3EB
:1022B0006F8FFEE7FFF78CFCA06BC8B1401EA063D8
:1022C000206810B9FFF712FC6060206950B104F17A
:1022D000100000F019FA28B1C8F80070BFF34F8F52
:1022E000BFF36F8FFFF794FC012005B0BDE8F083CA
:1022F000049808B166B10FE03DB1502080F3118819
:10230000BFF34F8FBFF36F8FFEE7FFF781FC5DE0F8
:102310006846FFF7F7FC0126FFF77AFCFFF7A2FDFE
:10232000FFF756FC94F94400401C01D184F8449016
:1023300094F94500401C01D184F84590FFF768FCF2
:1023400004A9684600F046F80028204612D0FFF79E
:102350002BFB00F013FA2046FFF7F4FA0028A9D06F
:102360009DB3FFF735FC606A50B3206B0068C0F185
:10237000070126E0FFF7E6FAE0B1206838B9FFF779
:1023800027FC606800F076F90546FFF741FC04F190
:1023900024000499FFF7C4FC2046FFF705FB00F07A
:1023A000EDF9002886D1C8F80070BFF34F8FBFF356
:1023B0006F8F7FE72046FFF7F7FA00F0DFF979E744
:1023C00000216068FFF7C4FC9FE7FFE700208CE76F
:1023D00004ED00E02DE9F0410C46050011D0C4B138
:1023E000FFF7F6FB174B5A696E682068911B471C74
:1023F00017D02F689B6A9F4219D0964217D80124A4
:1024000010E0502080F31188BFF34F8FBFF36F8F20
:10241000FEE7502080F31188BFF34F8FBFF36F8F1B
:10242000FEE70024FFF7F4FB2046BDE8F081884278
:1024300005D9401A20602846FFF764FCF1E7002028
:102440002060DCE71C0000202DE9FF5F8346DDE90A
:102450000E87994616468A469000FFF7DBFA05007C
:102460001CD05420FFF7D6FA040014D000202563B6
:1024700084F85100CDE90240CDE900874B46324651
:1024800051465846FFF7F1F92046FFF7D5F80120ED
:1024900004B0BDE8F09F2846FFF7CEFB4FF0FF30B9
:1024A000F6E7F0B585B0DDE90B640A9DA6B1DCB1B5
:1024B000542700972663022684F85160002604AF53
:1024C000CDE90246CDE90057FFF7CFF92046FFF7E7
:1024D000B3F8049805B0F0BD502080F31188BFF325
:1024E0004F8FBFF36F8FFEE7502080F31188BFF34B
:1024F0004F8FBFF36F8FFEE70548C16919B1806B3D
:1025000018B100207047012070470220704700007A
:102510001C0000202DE9F0412E4C0027A06B40B19B
:10252000206A401C2062606A00B101273846BDE87D
:10253000F0816669761C666113D16068006838B105
:10254000502080F31188BFF34F8FBFF36F8FFEE7EA
:102550006068A1686160A060A06A401CA062FFF78B
:10256000FFF9206BDFF87080864209D3606800684D
:1025700080B16068C068C568686886420DD2206313
:102580002068C06A00EB800158F821000128CAD9F0
:102590000127C8E74FF0FF30F1E7281DFFF7C8FA21
:1025A000A86A18B105F11800FFF7C2FAE86A01211C
:1025B000A26981401143A16100EB800108EB810019
:1025C000291DFFF7F9FAE86A2168C96A8842CDD364
:1025D0000127CBE71C0000205003002070B5040049
:1025E0004FF0000140D0214D2868844207D0502090
:1025F00080F31188BFF34F8FBFF36F8FFEE7A06C9E
:1026000038B1401EA064636CE26A9A422CD040B19B
:102610002AE0502080F31188BFF34F8FBFF36F8FF4
:10262000FEE7201DFFF784FA114A012150B9E06A44
:1026300000EB800352F8233023B9AB6901FA00F0B4
:102640008343AB61606CE062C0F10700A061E06AA7
:10265000AB6981401943A96100EB800002EB800067
:10266000211DFFF7A9FA0121084670BD1C000020BA
:102670005003002070B504004FF0000038D0204D0A
:10268000E16A2A68D26A914233D2A069002804DB49
:102690002868C06AC0F10700A0611A4E01EB8101F1
:1026A000606906EB810188421ED1201DFFF740FAC8
:1026B000012150B9E06A00EB800256F8222022B9CD
:1026C000AA6901FA00F08243AA612868C06AE06240
:1026D000AA6981401143A96100EB800006EB8000EC
:1026E000211DFFF769FA02E02868C06AE062012054
:1026F00070BD616C2A68D26A9142F8D370BD000047
:102700001C000020500300202DE9F041C068C4687F
:10271000ACB104F118000746FFF70AFA154DA86B93
:102720000126A0B139461448FFF746FAE06A296845
:10273000C96A88421CD901206E62BDE8F081502030
:1027400080F31188BFF34F8FBFF36F8FFEE7201D1B
:10275000FFF7EEF9E16AAA6906FA01F01043A861F1
:1027600001EB81000449B43901EB8000211DDBE756
:102770000020E2E71C000020040400202DE9F047BF
:102780002C4D00242746A86B38B1FFF721FAA86B1F
:10279000401EA863A86B40B146E0502080F311882A
:1027A000BFF34F8FBFF36F8FFEE72969224E0120E1
:1027B000D1B3A6F1B40980463068E8B1F068C468C6
:1027C00004F11800FFF7B4F9201DFFF7B1F9E06A32
:1027D000AA6908FA00F11143A96100EB800109EB35
:1027E0008100211DFFF7E8F9E06A2968C96A88427B
:1027F000E2D3C5F82480DFE70CB1FFF7B1F82C6A0B
:1028000044B14646FFF786FE00B16E62641EF9D100
:1028100000202862686A38B1084901273807086033
:10282000BFF34F8FBFF36F8FFFF7F2F93846BDE864
:10283000F08700001C0000200404002004ED00E0EC
:10284000D42800080D12000800000000000000005D
:10285000800000000000000000000000C828000800
:1028600069120008FEFF0000000000008000000068
:10287000000000000000000068656C6C6F2066724C
:102880006F6D20746872656164203120200D0A002C
:102890000000000068656C6C6F2066726F6D2074BC
:1028A0006872656164203220200D0A00000000007B
:1028B00000000000000102030406070809000000F0
:1028C00000010203040000006D795461736B303223
:1028D0000000000064656661756C745461736B0080
:1028E00000290008000000207C000000721400088D
:1028F0007C2900087C000020C443000082140008EA
:1029000000000000000000000000000001000000C6
:1029100010000000000000000024F400000000008F
:1029200000000000000000000000000000000000A7
:102930000000000000000000000000000000000097
:102940000000000000000000000000000000000087
:102950000000000000000000000000000000000077
:102960000000000000000000000000000000000067
:0C29700000000000AAAAAAAA00000000B3
:04000005080001AD41
:00000001FF
